{"contracts/ConfidentialSentimentAnalysis.sol":{"ConfidentialSentimentAnalysis":{"abi":[{"inputs":[],"stateMutability":"nonpayable","type":"constructor"},{"inputs":[],"name":"SubcallError","type":"error"},{"anonymous":false,"inputs":[{"indexed":true,"internalType":"uint256","name":"agentId","type":"uint256"},{"indexed":true,"internalType":"address","name":"owner","type":"address"},{"indexed":false,"internalType":"string","name":"modelUrl","type":"string"},{"indexed":false,"internalType":"uint256","name":"price","type":"uint256"}],"name":"AgentRegistered","type":"event"},{"anonymous":false,"inputs":[{"indexed":true,"internalType":"uint256","name":"requestId","type":"uint256"},{"indexed":true,"internalType":"address","name":"agentOwner","type":"address"},{"indexed":false,"internalType":"uint256","name":"amount","type":"uint256"},{"indexed":false,"internalType":"uint256","name":"platformFee","type":"uint256"}],"name":"PaymentProcessed","type":"event"},{"anonymous":false,"inputs":[{"indexed":true,"internalType":"bytes21","name":"appId","type":"bytes21"},{"indexed":true,"internalType":"address","name":"workerAddress","type":"address"}],"name":"ROFLWorkerRegistered","type":"event"},{"anonymous":false,"inputs":[{"indexed":true,"internalType":"uint256","name":"requestId","type":"uint256"},{"indexed":true,"internalType":"address","name":"requester","type":"address"},{"indexed":true,"internalType":"uint256","name":"agentId","type":"uint256"},{"indexed":false,"internalType":"bytes32","name":"requestHash","type":"bytes32"}],"name":"SentimentRequested","type":"event"},{"anonymous":false,"inputs":[{"indexed":true,"internalType":"uint256","name":"requestId","type":"uint256"},{"indexed":false,"internalType":"string","name":"sentiment","type":"string"},{"indexed":false,"internalType":"uint256","name":"confidence","type":"uint256"},{"indexed":true,"internalType":"address","name":"worker","type":"address"}],"name":"SentimentResult","type":"event"},{"inputs":[{"internalType":"uint256","name":"","type":"uint256"}],"name":"agents","outputs":[{"internalType":"address","name":"owner","type":"address"},{"internalType":"string","name":"modelUrl","type":"string"},{"internalType":"uint256","name":"price","type":"uint256"},{"internalType":"bool","name":"active","type":"bool"},{"internalType":"uint256","name":"totalRequests","type":"uint256"},{"internalType":"uint256","name":"totalEarnings","type":"uint256"}],"stateMutability":"view","type":"function"},{"inputs":[{"internalType":"address","name":"","type":"address"},{"internalType":"uint256","name":"","type":"uint256"}],"name":"agentsByOwner","outputs":[{"internalType":"uint256","name":"","type":"uint256"}],"stateMutability":"view","type":"function"},{"inputs":[],"name":"expectedROFLAppId","outputs":[{"internalType":"bytes21","name":"","type":"bytes21"}],"stateMutability":"view","type":"function"},{"inputs":[{"internalType":"uint256","name":"_agentId","type":"uint256"}],"name":"getAgent","outputs":[{"internalType":"address","name":"owner","type":"address"},{"internalType":"string","name":"modelUrl","type":"string"},{"internalType":"uint256","name":"price","type":"uint256"},{"internalType":"bool","name":"active","type":"bool"},{"internalType":"uint256","name":"totalRequests","type":"uint256"},{"internalType":"uint256","name":"totalEarnings","type":"uint256"}],"stateMutability":"view","type":"function"},{"inputs":[],"name":"getAgentCount","outputs":[{"internalType":"uint256","name":"","type":"uint256"}],"stateMutability":"view","type":"function"},{"inputs":[{"internalType":"address","name":"_owner","type":"address"}],"name":"getAgentsByOwner","outputs":[{"internalType":"uint256[]","name":"","type":"uint256[]"}],"stateMutability":"view","type":"function"},{"inputs":[],"name":"getPlatformStats","outputs":[{"internalType":"uint256","name":"totalAgents","type":"uint256"},{"internalType":"uint256","name":"totalRequests","type":"uint256"},{"internalType":"uint256","name":"totalFees","type":"uint256"},{"internalType":"uint256","name":"feePercent","type":"uint256"},{"internalType":"bool","name":"roflActive","type":"bool"}],"stateMutability":"view","type":"function"},{"inputs":[{"internalType":"uint256","name":"_requestId","type":"uint256"}],"name":"getRequest","outputs":[{"internalType":"address","name":"requester","type":"address"},{"internalType":"uint256","name":"agentId","type":"uint256"},{"internalType":"uint256","name":"timestamp","type":"uint256"},{"internalType":"bool","name":"fulfilled","type":"bool"},{"internalType":"string","name":"result","type":"string"},{"internalType":"uint256","name":"confidence","type":"uint256"}],"stateMutability":"view","type":"function"},{"inputs":[],"name":"getRequestCount","outputs":[{"internalType":"uint256","name":"","type":"uint256"}],"stateMutability":"view","type":"function"},{"inputs":[{"internalType":"uint256","name":"_requestId","type":"uint256"}],"name":"getRequestText","outputs":[{"internalType":"string","name":"","type":"string"}],"stateMutability":"view","type":"function"},{"inputs":[{"internalType":"address","name":"_user","type":"address"}],"name":"getRequestsByUser","outputs":[{"internalType":"uint256[]","name":"","type":"uint256[]"}],"stateMutability":"view","type":"function"},{"inputs":[],"name":"nextAgentId","outputs":[{"internalType":"uint256","name":"","type":"uint256"}],"stateMutability":"view","type":"function"},{"inputs":[],"name":"nextRequestId","outputs":[{"internalType":"uint256","name":"","type":"uint256"}],"stateMutability":"view","type":"function"},{"inputs":[],"name":"platformFeePercent","outputs":[{"internalType":"uint256","name":"","type":"uint256"}],"stateMutability":"view","type":"function"},{"inputs":[],"name":"platformOwner","outputs":[{"internalType":"address","name":"","type":"address"}],"stateMutability":"view","type":"function"},{"inputs":[{"internalType":"string","name":"_modelUrl","type":"string"},{"internalType":"uint256","name":"_price","type":"uint256"}],"name":"registerAgent","outputs":[],"stateMutability":"nonpayable","type":"function"},{"inputs":[{"internalType":"bytes21","name":"_appId","type":"bytes21"},{"internalType":"address","name":"_workerAddress","type":"address"}],"name":"registerROFLWorker","outputs":[],"stateMutability":"nonpayable","type":"function"},{"inputs":[{"internalType":"bytes32","name":"","type":"bytes32"}],"name":"requestHashToId","outputs":[{"internalType":"uint256","name":"","type":"uint256"}],"stateMutability":"view","type":"function"},{"inputs":[{"internalType":"uint256","name":"_agentId","type":"uint256"},{"internalType":"string","name":"_text","type":"string"}],"name":"requestSentiment","outputs":[],"stateMutability":"payable","type":"function"},{"inputs":[{"internalType":"uint256","name":"","type":"uint256"}],"name":"requests","outputs":[{"internalType":"address","name":"requester","type":"address"},{"internalType":"uint256","name":"agentId","type":"uint256"},{"internalType":"bytes","name":"encryptedText","type":"bytes"},{"internalType":"bytes32","name":"encryptionKey","type":"bytes32"},{"internalType":"bytes32","name":"encryptionNonce","type":"bytes32"},{"internalType":"bytes","name":"additionalData","type":"bytes"},{"internalType":"uint256","name":"timestamp","type":"uint256"},{"internalType":"bool","name":"fulfilled","type":"bool"},{"internalType":"string","name":"result","type":"string"},{"internalType":"uint256","name":"confidence","type":"uint256"},{"internalType":"bytes32","name":"requestHash","type":"bytes32"}],"stateMutability":"view","type":"function"},{"inputs":[{"internalType":"address","name":"","type":"address"},{"internalType":"uint256","name":"","type":"uint256"}],"name":"requestsByUser","outputs":[{"internalType":"uint256","name":"","type":"uint256"}],"stateMutability":"view","type":"function"},{"inputs":[],"name":"roflEnabled","outputs":[{"internalType":"bool","name":"","type":"bool"}],"stateMutability":"view","type":"function"},{"inputs":[],"name":"roflWorkerAddress","outputs":[{"internalType":"address","name":"","type":"address"}],"stateMutability":"view","type":"function"},{"inputs":[{"internalType":"uint256","name":"_requestId","type":"uint256"},{"internalType":"string","name":"_sentiment","type":"string"},{"internalType":"uint256","name":"_confidence","type":"uint256"},{"internalType":"bytes32","name":"_requestHash","type":"bytes32"}],"name":"submitResult","outputs":[],"stateMutability":"nonpayable","type":"function"},{"inputs":[{"internalType":"uint256","name":"_agentId","type":"uint256"}],"name":"toggleAgent","outputs":[],"stateMutability":"nonpayable","type":"function"},{"inputs":[],"name":"toggleROFL","outputs":[],"stateMutability":"nonpayable","type":"function"},{"inputs":[],"name":"totalPlatformFees","outputs":[{"internalType":"uint256","name":"","type":"uint256"}],"stateMutability":"view","type":"function"},{"inputs":[{"internalType":"uint256","name":"_agentId","type":"uint256"},{"internalType":"uint256","name":"_newPrice","type":"uint256"}],"name":"updateAgentPrice","outputs":[],"stateMutability":"nonpayable","type":"function"},{"inputs":[{"internalType":"uint256","name":"_newFeePercent","type":"uint256"}],"name":"updatePlatformFee","outputs":[],"stateMutability":"nonpayable","type":"function"},{"inputs":[],"name":"withdrawPlatformFees","outputs":[],"stateMutability":"nonpayable","type":"function"}],"evm":{"bytecode":{"linkReferences":{},"object":"60808060405234610042576005805460ff60a01b19168155600955600a80546001600160a01b03191633179055600060028190556003556122c890816100488239f35b600080fdfe6080604052600436101561001257600080fd5b60003560e01c80623b465c146101f5578062bab438146101f0578063136d8883146101eb5780631ab6f888146101e65780632de5aaf7146101e157806330efc498146101dc578063319bd4b6146101d75780633fad1834146101d25780634df8ccb1146101cd578063513856c8146101c85780635f9eefef146101c357806368fb4091146101be5780636a84a985146101b9578063768eb96f146101b457806379303ac4146101af57806381d12c58146101aa5780638c639a85146101a557806391cab63e146101a05780639372478a1461019b57806396e7f92014610196578063a638728514610191578063a766d4b01461018c578063aa0b598814610187578063c58343ef14610182578063c62e5ec81461017d578063d0b7830b14610178578063d3631fa514610173578063e4656d471461016e578063e81c1201146101695763fd0928a21461016457600080fd5b6116cf565b611686565b611657565b611639565b6115e8565b6114b0565b611342565b611292565b61121a565b6111ee565b610f35565b610f0c565b610eee565b610ed0565b610e31565b610cdd565b610c93565b610c75565b610b49565b610b23565b610aad565b61095f565b610941565b6106a8565b610587565b6104b8565b6103ab565b610329565b6102b6565b61025e565b600435906001600160a01b038216820361021057565b600080fd5b602435906001600160a01b038216820361021057565b634e487b7160e01b600052603260045260246000fd5b80548210156102595760005260206000200190600090565b61022b565b34610210576040366003190112610210576102776101fa565b6001600160a01b0316600090815260076020526040902080546024359190821015610210576020916102a891610241565b90546040519160031b1c8152f35b34610210576020366003190112610210576103276004356102da6000548210611abc565b6102f86102e682610988565b50546001600160a01b03163314612254565b600361031460ff8261030985610988565b500154161592610988565b50019060ff801983541691151516179055565b005b346102105760003660031901126102105760a060005460ff600154600b546009549060055492604051958652602086015260408501526060840152831c1615156080820152f35b6020908160408183019282815285518094520193019160005b828110610397575050505090565b835185529381019392810192600101610389565b3461021057602080600319360112610210576001600160a01b036103cd6101fa565b1660005260068152604060002090604051908181845491828152019360005281600020916000905b82821061041c576104188561040c818903826105f6565b60405191829182610370565b0390f35b8354865294850194600193840193909101906103f5565b60005b8381106104465750506000910152565b8181015183820152602001610436565b9060209161046f81518092818552858086019101610433565b601f01601f1916010190565b92969594916104a29060a09592600180881b0316855260c0602086015260c0850190610456565b9660408401521515606083015260808201520152565b34610210576020366003190112610210576104e16004356104dc6000548210611abc565b610988565b506040516104ee816105bb565b81546001600160a01b03168152604051906104189061051b8361051481600188016109fc565b03846105f6565b602081019283526002840154936040820194855261053d600382015460ff1690565b15156060830190815261057a61056f60056004850154948560808801520154948560a08201525160018060a01b031690565b955196519151151590565b906040519687968761047b565b34610210576000366003190112610210576020600254604051908152f35b634e487b7160e01b600052604160045260246000fd5b60c081019081106001600160401b038211176105d657604052565b6105a5565b604081019081106001600160401b038211176105d657604052565b90601f801991011681019081106001600160401b038211176105d657604052565b6040519061016082018281106001600160401b038211176105d657604052565b60405190610644826105bb565b565b6001600160401b0381116105d657601f01601f191660200190565b81601f820112156102105780359061067882610646565b9261068660405194856105f6565b8284526020838301011161021057816000926020809301838601378301015290565b60408060031936011261021057600435906024356001600160401b038111610210576106d8903690600401610661565b906106e66000548410611abc565b60ff60036106f385610988565b5001541615610908577f703be6ef5712f36524a6139dd020a687cacafa82afd15d127deac719431463ab61084a9161072d84511515611aff565b610746600261073b87610988565b500154341015611b42565b6108a0815161081486602092898482018261078683334285916054939183526bffffffffffffffffffffffff199060601b16602083015260348201520190565b039261079a601f19948581018352826105f6565b51902091600354998a916108278a80518a8101906107d4816107c8438a869091604092825260208201520190565b038681018352826105f6565b5190208151808c01888152336020820152909a91998b939092610820928e9290610809908790604001038981018852876105f6565b51938492830161149c565b038581018352826105f6565b8888611d29565b9c61083e8b519485928b840197429233908a611b85565b039081018352826105f6565b519020988a610857610617565b33815295860152868501526060840152608083015260a08201524260c0820152600060e0820152610886611bca565b610100820152600061012082015285610140820152611bed565b3360009081526007602052604090206108ba908490611a46565b826108cf856000526008602052604060002090565b556108e36108de600354611a91565b600355565b60046108ee86610988565b50016108fa8154611a91565b9055519283523392602090a4005b5162461bcd60e51b81526020600482015260136024820152724167656e74206973206e6f742061637469766560681b6044820152606490fd5b34610210576000366003190112610210576020600154604051908152f35b3461021057600036600319011261021057600a546040516001600160a01b039091168152602090f35b6000548110156102595760069060008052027f290decd9548b62a8d60345a988386fc84ba6bc95484008f6362f93160ef3e5630190600090565b90600182811c921680156109f2575b60208310146109dc57565b634e487b7160e01b600052602260045260246000fd5b91607f16916109d1565b9060009291805491610a0d836109c2565b918282526001938481169081600014610a6f5750600114610a2f575b50505050565b90919394506000526020928360002092846000945b838610610a5b575050505001019038808080610a29565b805485870183015294019385908201610a44565b9294505050602093945060ff191683830152151560051b01019038808080610a29565b90610644610aa692604051938480926109fc565b03836105f6565b346102105760203660031901126102105760043560005481101561021057610ad490610988565b5060018060a01b0381541661041860405192610afe84610af781600185016109fc565b03856105f6565b60028101549060ff60038201541660056004830154920154926040519687968761047b565b3461021057600036600319011261021057602060ff60055460a01c166040519015158152f35b34610210576040366003190112610210576004356001600160401b03811161021057610b79903690600401610661565b602435815115610c3057610b8e811515611756565b7fc29f819ac362ff9c94de06666235808451aafd8894a2dffb86a080a965efeae3610c2b60025492610bf0610bc1610637565b338152866020820152826040820152610bdd6060820160019052565b60006080820152600060a08201526118da565b336000908152600660205260409020610c0a908590611a46565b610c1d610c18600254611a91565b600255565b604051918291339683611aa5565b0390a3005b60405162461bcd60e51b815260206004820152601960248201527f4d6f64656c2055524c2063616e6e6f7420626520656d707479000000000000006044820152606490fd5b34610210576000366003190112610210576020600354604051908152f35b3461021057604036600319011261021057610cac6101fa565b6001600160a01b0316600090815260066020526040902080546024359190821015610210576020916102a891610241565b34610210576040366003190112610210576004356affffffffffffffffffffff19811680820361021057610d0f610215565b600a546001600160a01b039190610d299083163314611715565b6affffffffffffffffffffff60a81b9360581c846004541617600455169182600160a01b916005541617176005557fc5861f1f778380dacb15e8dc555eb44a1c032c847fd031d12883e75cef297975600080a3005b60015481101561025957600b906001600052027fb10e2d527612073b26eecdfd717e6a320cf44b4afac2b0732d9fcbe2b7fa0cf60190600090565b97939194610df3610e0b946101409b979c9e9d9c610e269a999460018060a01b03168c5260208c01526101608060408d01528b0190610456565b9260608a0152608089015287820360a0890152610456565b9260c0860152151560e0850152838203610100850152610456565b946101208201520152565b346102105760203660031901126102105760043560015481101561021057610e5890610d7e565b5060018060a01b0381541661041860018301549260405190610e8182610aa681600285016109fc565b60038101546004820154610e9760058401610a92565b600684015490610eab600786015460ff1690565b92610eb860088701610a92565b94600a6009880154970154976040519b8c9b8c610db9565b34610210576000366003190112610210576020600954604051908152f35b34610210576000366003190112610210576020600054604051908152f35b34610210576000366003190112610210576005546040516001600160a01b039091168152602090f35b34610210576080366003190112610210576004356024356001600160401b03811161021057610f68903690600401610661565b9060443560055460ff8160a01c166000146111d55750610fa6610f8961203c565b6affffffffffffffffffffff198060045460581b16911614611de0565b610fb36001548310611e1f565b610fd9610fd4610fd06007610fc786610d7e565b50015460ff1690565b1590565b611e64565b610fe66064821115611eb0565b611000610ff283610d7e565b50600a015460643514611efc565b611031835160208501908120611014611f3f565b60208151910120149081156111b9575b811561119d575b50611faa565b61104e600761103f84610d7e565b5001805460ff19166001179055565b61106483600861105d85610d7e565b500161180c565b80600961107084610d7e565b500155600161107e83610d7e565b50015461109b61108d82610988565b50546001600160a01b031690565b9060026110a782610988565b5001549160056110d66110d06110c96110c260095488611ff6565b6064900490565b8096612009565b93610988565b50016110e3838254612016565b90556110f96110f484600b54612016565b600b55565b6001600160a01b031694600082878115611193575b600092839283928392f11561118e57847f69148261bafe8dad888d83ec403762c2b4d49a98677efb08e063b268511a67786111727f3752d299ee850882ff779a81f3571c4d0952aec5f8fe5b833257fae354ee5c1796604051918291339683611aa5565b0390a36040805191825260208201929092529081908101610c2b565b612023565b6108fc925061110e565b9050845190206111ab611f86565b60208151910120143861102b565b9050845181206111c7611f63565b602081519101201490611024565b6111e9906001600160a01b03163314611d9c565b610fa6565b346102105760203660031901126102105760043560005260086020526020604060002054604051908152f35b3461021057602080600319360112610210576001600160a01b0361123c6101fa565b1660005260078152604060002090604051908181845491828152019360005281600020916000905b82821061127b576104188561040c818903826105f6565b835486529485019460019384019390910190611264565b34610210576020366003190112610210576004356112bb60018060a01b03600a54163314611715565b601481116112c857600955005b60405162461bcd60e51b81526020600482015260156024820152744665652063616e6e6f74206578636565642032302560581b6044820152606490fd5b969594919261133d9360a09592600180881b03168952602089015260408801521515606087015260c0608087015260c0860190610456565b930152565b346102105760203660031901126102105761136b6004356113666001548210611e1f565b610d7e565b50611374610617565b81546001600160a01b031681526104186001830154916020810192835261139d60028501610a92565b604082015260038401546060820152600484015460808201526113c260058501610a92565b60a082015260068401549360c082019485526113e2600782015460ff1690565b151560e083019081529161146861145d6113fe60088501610a92565b926101008101938452600a6009860154956101208301968752015461014082015261143e611432825160018060a01b031690565b6001600160a01b031690565b33148015611479575b61145090612208565b516001600160a01b031690565b955196519351151590565b905191519260405196879687611305565b5060055461145090611493906001600160a01b0316611432565b33149050611447565b9060206114ad928181520190610456565b90565b34610210576020366003190112610210576000806114f360043560055460ff8160a01c1684146115cf57506114e6610f8961203c565b6113666001548210611e1f565b5060038101549061155c600482015461154e600561153d604051956115268761151f81600285016109fc565b03886105f6565b61153660405180948193016109fc565b03826105f6565b604051948593602085019788611cc9565b03601f1981018352826105f6565b51906004600160981b015afa611570611cf9565b90156115985761158c81602080610418945183010191016121d2565b6040519182918261149c565b60405162461bcd60e51b815260206004820152600f60248201526e191958dc9e5c1d0e8819985a5b1959608a1b6044820152606490fd5b6115e3906001600160a01b03163314611d9c565b6114e6565b3461021057600080600319360112611636578080808060018060a01b03600a5416611614813314611715565b600b549082600b5582821561162d575bf11561118e5780f35b506108fc611624565b80fd5b34610210576000366003190112610210576020600b54604051908152f35b3461021057600036600319011261021057602060045460581b604051906affffffffffffffffffffff19168152f35b34610210576000366003190112610210576116ac60018060a01b03600a54163314611715565b6005805460ff60a01b19811660a091821c60ff161590911b60ff60a01b16179055005b34610210576040366003190112610210576004356002611710602435926116f96000548210611abc565b6117056102e682610988565b6104dc841515611756565b500155005b1561171c57565b60405162461bcd60e51b81526020600482015260126024820152712737ba10383630ba3337b9369037bbb732b960711b6044820152606490fd5b1561175d57565b60405162461bcd60e51b815260206004820152601c60248201527f5072696365206d7573742062652067726561746572207468616e2030000000006044820152606490fd5b634e487b7160e01b600052600060045260246000fd5b90601f81116117c657505050565b600091825260208220906020601f850160051c83019410611802575b601f0160051c01915b8281106117f757505050565b8181556001016117eb565b90925082906117e2565b91909182516001600160401b0381116105d6576118338161182d84546109c2565b846117b8565b602080601f831160011461186f575081929394600092611864575b50508160011b916000199060031b1c1916179055565b01519050388061184e565b90601f1983169561188585600052602060002090565b926000905b8882106118c2575050836001959697106118a9575b505050811b019055565b015160001960f88460031b161c1916905538808061189f565b8060018596829496860151815501950193019061188a565b600054600160401b8110156105d6576118fa600191828101600055610988565b929092611a4157805183546001600160a01b0319166001600160a01b0391909116178355818301602080830151938451916001600160401b0383116105d65761194d8361194786546109c2565b866117b8565b80601f84116001146119cb57509180809260a09695946005986000946119c0575b50501b916000199060031b1c19161790555b604081015160028501556119af61199a6060830151151590565b600386019060ff801983541691151516179055565b608081015160048501550151910155565b01519250388061196e565b91939495601f1984166119e387600052602060002090565b936000905b828210611a2a575050916005979593918560a098969410611a11575b505050811b019055611980565b015160001960f88460031b161c19169055388080611a04565b8088869782949787015181550196019401906119e8565b6117a2565b8054600160401b8110156105d657611a6391600182018155610241565b819291549060031b91821b91600019901b1916179055565b634e487b7160e01b600052601160045260246000fd5b6000198114611aa05760010190565b611a7b565b92919061133d602091604086526040860190610456565b15611ac357565b60405162461bcd60e51b81526020600482015260146024820152731059d95b9d08191bd95cc81b9bdd08195e1a5cdd60621b6044820152606490fd5b15611b0657565b60405162461bcd60e51b8152602060048201526014602482015273546578742063616e6e6f7420626520656d70747960601b6044820152606490fd5b15611b4957565b60405162461bcd60e51b8152602060048201526014602482015273125b9cdd59999a58da595b9d081c185e5b595b9d60621b6044820152606490fd5b9160749594939183526bffffffffffffffffffffffff199060601b1660208301526034820152611bbf825180936020605485019101610433565b019060548201520190565b60405190602082018281106001600160401b038211176105d65760405260008252565b600154600160401b8110156105d657806001611c0c9201600155610d7e565b919091611a4157805182546001600160a01b0319166001600160a01b03909116178255600a906101409060208101516001850155611c5160408201516002860161180c565b6060810151600385015560808101516004850155611c7660a08201516005860161180c565b60c08101516006850155611ca5611c9060e0830151151590565b600786019060ff801983541691151516179055565b611cb76101008201516008860161180c565b61012081015160098501550151910155565b926114ad9492611ceb9285526020850152608060408501526080840190610456565b916060818403910152610456565b3d15611d24573d90611d0a82610646565b91611d1860405193846105f6565b82523d6000602084013e565b606090565b9091611d486000949361154e8695604051948593602085019788611cc9565b51906003600160981b015afa611d5c611cf9565b9015611d655790565b60405162461bcd60e51b815260206004820152600f60248201526e195b98dc9e5c1d0e8819985a5b1959608a1b6044820152606490fd5b15611da357565b60405162461bcd60e51b81526020600482015260156024820152742737ba1030baba3437b934bd32b2103bb7b935b2b960591b6044820152606490fd5b15611de757565b60405162461bcd60e51b815260206004820152601060248201526f0496e76616c696420524f464c206170760841b6044820152606490fd5b15611e2657565b60405162461bcd60e51b815260206004820152601660248201527514995c5d595cdd08191bd95cc81b9bdd08195e1a5cdd60521b6044820152606490fd5b15611e6b57565b60405162461bcd60e51b815260206004820152601960248201527f5265717565737420616c72656164792066756c66696c6c6564000000000000006044820152606490fd5b15611eb757565b60405162461bcd60e51b815260206004820152601860248201527f436f6e666964656e6365206d75737420626520302d31303000000000000000006044820152606490fd5b15611f0357565b60405162461bcd60e51b8152602060048201526014602482015273092dcecc2d8d2c840e4cae2eacae6e840d0c2e6d60631b6044820152606490fd5b60405190611f4c826105db565b6008825267706f73697469766560c01b6020830152565b60405190611f70826105db565b60078252661b995d5d1c985b60ca1b6020830152565b60405190611f93826105db565b60088252676e6567617469766560c01b6020830152565b15611fb157565b60405162461bcd60e51b815260206004820152601760248201527f496e76616c69642073656e74696d656e742076616c75650000000000000000006044820152606490fd5b81810292918115918404141715611aa057565b91908203918211611aa057565b91908201809211611aa057565b6040513d6000823e3d90fd5b8051156102595760200190565b604080519061204a826105db565b600e825260206d0726f666c2e4f726967696e4170760941b818401528151612071816105db565b60018152607b60f91b828201526120ae8351918261083e61209c86830198888a526060840190610456565b601f1993848483030189850152610456565b60008094819251907301000000000000000000000000000000000001035afa926120d6611cf9565b931561218c57835184019183858285019403126121885780850151946001600160401b0390818716809703612184578581015191821161218457019183603f84011215611636575081015161212d9291840161219d565b9115801590612153575b61214357506021015190565b51631205d29f60e31b8152600490fd5b50605560f81b6001600160f81b031961217c61216e8561202f565b516001600160f81b03191690565b161415612137565b8380fd5b5080fd5b8251631205d29f60e31b8152600490fd5b909291926121aa81610646565b916121b860405193846105f6565b829482845282820111610210576020610644930190610433565b602081830312610210578051906001600160401b03821161021057019080601f830112156102105781516114ad9260200161219d565b1561220f57565b60405162461bcd60e51b815260206004820152601e60248201527f4e6f7420617574686f72697a656420746f2076696577207265717565737400006044820152606490fd5b1561225b57565b60405162461bcd60e51b815260206004820152600f60248201526e2737ba1030b3b2b73a1037bbb732b960891b6044820152606490fdfea264697066735822122094a7de25a4ab1d39535fd2865061bd1b05eb53f69a25c3e6a4b971b5e5c04d3264736f6c63430008130033","opcodes":"PUSH1 0x80 DUP1 PUSH1 0x40 MSTORE CALLVALUE PUSH2 0x42 JUMPI PUSH1 0x5 DUP1 SLOAD PUSH1 0xFF PUSH1 0xA0 SHL NOT AND DUP2 SSTORE PUSH1 0x9 SSTORE PUSH1 0xA DUP1 SLOAD PUSH1 0x1 PUSH1 0x1 PUSH1 0xA0 SHL SUB NOT AND CALLER OR SWAP1 SSTORE PUSH1 0x0 PUSH1 0x2 DUP2 SWAP1 SSTORE PUSH1 0x3 SSTORE PUSH2 0x22C8 SWAP1 DUP2 PUSH2 0x48 DUP3 CODECOPY RETURN JUMPDEST PUSH1 0x0 DUP1 REVERT INVALID PUSH1 0x80 PUSH1 0x40 MSTORE PUSH1 0x4 CALLDATASIZE LT ISZERO PUSH2 0x12 JUMPI PUSH1 0x0 DUP1 REVERT JUMPDEST PUSH1 0x0 CALLDATALOAD PUSH1 0xE0 SHR DUP1 PUSH3 0x3B465C EQ PUSH2 0x1F5 JUMPI DUP1 PUSH3 0xBAB438 EQ PUSH2 0x1F0 JUMPI DUP1 PUSH4 0x136D8883 EQ PUSH2 0x1EB JUMPI DUP1 PUSH4 0x1AB6F888 EQ PUSH2 0x1E6 JUMPI DUP1 PUSH4 0x2DE5AAF7 EQ PUSH2 0x1E1 JUMPI DUP1 PUSH4 0x30EFC498 EQ PUSH2 0x1DC JUMPI DUP1 PUSH4 0x319BD4B6 EQ PUSH2 0x1D7 JUMPI DUP1 PUSH4 0x3FAD1834 EQ PUSH2 0x1D2 JUMPI DUP1 PUSH4 0x4DF8CCB1 EQ PUSH2 0x1CD JUMPI DUP1 PUSH4 0x513856C8 EQ PUSH2 0x1C8 JUMPI DUP1 PUSH4 0x5F9EEFEF EQ PUSH2 0x1C3 JUMPI DUP1 PUSH4 0x68FB4091 EQ PUSH2 0x1BE JUMPI DUP1 PUSH4 0x6A84A985 EQ PUSH2 0x1B9 JUMPI DUP1 PUSH4 0x768EB96F EQ PUSH2 0x1B4 JUMPI DUP1 PUSH4 0x79303AC4 EQ PUSH2 0x1AF JUMPI DUP1 PUSH4 0x81D12C58 EQ PUSH2 0x1AA JUMPI DUP1 PUSH4 0x8C639A85 EQ PUSH2 0x1A5 JUMPI DUP1 PUSH4 0x91CAB63E EQ PUSH2 0x1A0 JUMPI DUP1 PUSH4 0x9372478A EQ PUSH2 0x19B JUMPI DUP1 PUSH4 0x96E7F920 EQ PUSH2 0x196 JUMPI DUP1 PUSH4 0xA6387285 EQ PUSH2 0x191 JUMPI DUP1 PUSH4 0xA766D4B0 EQ PUSH2 0x18C JUMPI DUP1 PUSH4 0xAA0B5988 EQ PUSH2 0x187 JUMPI DUP1 PUSH4 0xC58343EF EQ PUSH2 0x182 JUMPI DUP1 PUSH4 0xC62E5EC8 EQ PUSH2 0x17D JUMPI DUP1 PUSH4 0xD0B7830B EQ PUSH2 0x178 JUMPI DUP1 PUSH4 0xD3631FA5 EQ PUSH2 0x173 JUMPI DUP1 PUSH4 0xE4656D47 EQ PUSH2 0x16E JUMPI DUP1 PUSH4 0xE81C1201 EQ PUSH2 0x169 JUMPI PUSH4 0xFD0928A2 EQ PUSH2 0x164 JUMPI PUSH1 0x0 DUP1 REVERT JUMPDEST PUSH2 0x16CF JUMP JUMPDEST PUSH2 0x1686 JUMP JUMPDEST PUSH2 0x1657 JUMP JUMPDEST PUSH2 0x1639 JUMP JUMPDEST PUSH2 0x15E8 JUMP JUMPDEST PUSH2 0x14B0 JUMP JUMPDEST PUSH2 0x1342 JUMP JUMPDEST PUSH2 0x1292 JUMP JUMPDEST PUSH2 0x121A JUMP JUMPDEST PUSH2 0x11EE JUMP JUMPDEST PUSH2 0xF35 JUMP JUMPDEST PUSH2 0xF0C JUMP JUMPDEST PUSH2 0xEEE JUMP JUMPDEST PUSH2 0xED0 JUMP JUMPDEST PUSH2 0xE31 JUMP JUMPDEST PUSH2 0xCDD JUMP JUMPDEST PUSH2 0xC93 JUMP JUMPDEST PUSH2 0xC75 JUMP JUMPDEST PUSH2 0xB49 JUMP JUMPDEST PUSH2 0xB23 JUMP JUMPDEST PUSH2 0xAAD JUMP JUMPDEST PUSH2 0x95F JUMP JUMPDEST PUSH2 0x941 JUMP JUMPDEST PUSH2 0x6A8 JUMP JUMPDEST PUSH2 0x587 JUMP JUMPDEST PUSH2 0x4B8 JUMP JUMPDEST PUSH2 0x3AB JUMP JUMPDEST PUSH2 0x329 JUMP JUMPDEST PUSH2 0x2B6 JUMP JUMPDEST PUSH2 0x25E JUMP JUMPDEST PUSH1 0x4 CALLDATALOAD SWAP1 PUSH1 0x1 PUSH1 0x1 PUSH1 0xA0 SHL SUB DUP3 AND DUP3 SUB PUSH2 0x210 JUMPI JUMP JUMPDEST PUSH1 0x0 DUP1 REVERT JUMPDEST PUSH1 0x24 CALLDATALOAD SWAP1 PUSH1 0x1 PUSH1 0x1 PUSH1 0xA0 SHL SUB DUP3 AND DUP3 SUB PUSH2 0x210 JUMPI JUMP JUMPDEST PUSH4 0x4E487B71 PUSH1 0xE0 SHL PUSH1 0x0 MSTORE PUSH1 0x32 PUSH1 0x4 MSTORE PUSH1 0x24 PUSH1 0x0 REVERT JUMPDEST DUP1 SLOAD DUP3 LT ISZERO PUSH2 0x259 JUMPI PUSH1 0x0 MSTORE PUSH1 0x20 PUSH1 0x0 KECCAK256 ADD SWAP1 PUSH1 0x0 SWAP1 JUMP JUMPDEST PUSH2 0x22B JUMP JUMPDEST CALLVALUE PUSH2 0x210 JUMPI PUSH1 0x40 CALLDATASIZE PUSH1 0x3 NOT ADD SLT PUSH2 0x210 JUMPI PUSH2 0x277 PUSH2 0x1FA JUMP JUMPDEST PUSH1 0x1 PUSH1 0x1 PUSH1 0xA0 SHL SUB AND PUSH1 0x0 SWAP1 DUP2 MSTORE PUSH1 0x7 PUSH1 0x20 MSTORE PUSH1 0x40 SWAP1 KECCAK256 DUP1 SLOAD PUSH1 0x24 CALLDATALOAD SWAP2 SWAP1 DUP3 LT ISZERO PUSH2 0x210 JUMPI PUSH1 0x20 SWAP2 PUSH2 0x2A8 SWAP2 PUSH2 0x241 JUMP JUMPDEST SWAP1 SLOAD PUSH1 0x40 MLOAD SWAP2 PUSH1 0x3 SHL SHR DUP2 MSTORE RETURN JUMPDEST CALLVALUE PUSH2 0x210 JUMPI PUSH1 0x20 CALLDATASIZE PUSH1 0x3 NOT ADD SLT PUSH2 0x210 JUMPI PUSH2 0x327 PUSH1 0x4 CALLDATALOAD PUSH2 0x2DA PUSH1 0x0 SLOAD DUP3 LT PUSH2 0x1ABC JUMP JUMPDEST PUSH2 0x2F8 PUSH2 0x2E6 DUP3 PUSH2 0x988 JUMP JUMPDEST POP SLOAD PUSH1 0x1 PUSH1 0x1 PUSH1 0xA0 SHL SUB AND CALLER EQ PUSH2 0x2254 JUMP JUMPDEST PUSH1 0x3 PUSH2 0x314 PUSH1 0xFF DUP3 PUSH2 0x309 DUP6 PUSH2 0x988 JUMP JUMPDEST POP ADD SLOAD AND ISZERO SWAP3 PUSH2 0x988 JUMP JUMPDEST POP ADD SWAP1 PUSH1 0xFF DUP1 NOT DUP4 SLOAD AND SWAP2 ISZERO ISZERO AND OR SWAP1 SSTORE JUMP JUMPDEST STOP JUMPDEST CALLVALUE PUSH2 0x210 JUMPI PUSH1 0x0 CALLDATASIZE PUSH1 0x3 NOT ADD SLT PUSH2 0x210 JUMPI PUSH1 0xA0 PUSH1 0x0 SLOAD PUSH1 0xFF PUSH1 0x1 SLOAD PUSH1 0xB SLOAD PUSH1 0x9 SLOAD SWAP1 PUSH1 0x5 SLOAD SWAP3 PUSH1 0x40 MLOAD SWAP6 DUP7 MSTORE PUSH1 0x20 DUP7 ADD MSTORE PUSH1 0x40 DUP6 ADD MSTORE PUSH1 0x60 DUP5 ADD MSTORE DUP4 SHR AND ISZERO ISZERO PUSH1 0x80 DUP3 ADD MSTORE RETURN JUMPDEST PUSH1 0x20 SWAP1 DUP2 PUSH1 0x40 DUP2 DUP4 ADD SWAP3 DUP3 DUP2 MSTORE DUP6 MLOAD DUP1 SWAP5 MSTORE ADD SWAP4 ADD SWAP2 PUSH1 0x0 JUMPDEST DUP3 DUP2 LT PUSH2 0x397 JUMPI POP POP POP POP SWAP1 JUMP JUMPDEST DUP4 MLOAD DUP6 MSTORE SWAP4 DUP2 ADD SWAP4 SWAP3 DUP2 ADD SWAP3 PUSH1 0x1 ADD PUSH2 0x389 JUMP JUMPDEST CALLVALUE PUSH2 0x210 JUMPI PUSH1 0x20 DUP1 PUSH1 0x3 NOT CALLDATASIZE ADD SLT PUSH2 0x210 JUMPI PUSH1 0x1 PUSH1 0x1 PUSH1 0xA0 SHL SUB PUSH2 0x3CD PUSH2 0x1FA JUMP JUMPDEST AND PUSH1 0x0 MSTORE PUSH1 0x6 DUP2 MSTORE PUSH1 0x40 PUSH1 0x0 KECCAK256 SWAP1 PUSH1 0x40 MLOAD SWAP1 DUP2 DUP2 DUP5 SLOAD SWAP2 DUP3 DUP2 MSTORE ADD SWAP4 PUSH1 0x0 MSTORE DUP2 PUSH1 0x0 KECCAK256 SWAP2 PUSH1 0x0 SWAP1 JUMPDEST DUP3 DUP3 LT PUSH2 0x41C JUMPI PUSH2 0x418 DUP6 PUSH2 0x40C DUP2 DUP10 SUB DUP3 PUSH2 0x5F6 JUMP JUMPDEST PUSH1 0x40 MLOAD SWAP2 DUP3 SWAP2 DUP3 PUSH2 0x370 JUMP JUMPDEST SUB SWAP1 RETURN JUMPDEST DUP4 SLOAD DUP7 MSTORE SWAP5 DUP6 ADD SWAP5 PUSH1 0x1 SWAP4 DUP5 ADD SWAP4 SWAP1 SWAP2 ADD SWAP1 PUSH2 0x3F5 JUMP JUMPDEST PUSH1 0x0 JUMPDEST DUP4 DUP2 LT PUSH2 0x446 JUMPI POP POP PUSH1 0x0 SWAP2 ADD MSTORE JUMP JUMPDEST DUP2 DUP2 ADD MLOAD DUP4 DUP3 ADD MSTORE PUSH1 0x20 ADD PUSH2 0x436 JUMP JUMPDEST SWAP1 PUSH1 0x20 SWAP2 PUSH2 0x46F DUP2 MLOAD DUP1 SWAP3 DUP2 DUP6 MSTORE DUP6 DUP1 DUP7 ADD SWAP2 ADD PUSH2 0x433 JUMP JUMPDEST PUSH1 0x1F ADD PUSH1 0x1F NOT AND ADD ADD SWAP1 JUMP JUMPDEST SWAP3 SWAP7 SWAP6 SWAP5 SWAP2 PUSH2 0x4A2 SWAP1 PUSH1 0xA0 SWAP6 SWAP3 PUSH1 0x1 DUP1 DUP9 SHL SUB AND DUP6 MSTORE PUSH1 0xC0 PUSH1 0x20 DUP7 ADD MSTORE PUSH1 0xC0 DUP6 ADD SWAP1 PUSH2 0x456 JUMP JUMPDEST SWAP7 PUSH1 0x40 DUP5 ADD MSTORE ISZERO ISZERO PUSH1 0x60 DUP4 ADD MSTORE PUSH1 0x80 DUP3 ADD MSTORE ADD MSTORE JUMP JUMPDEST CALLVALUE PUSH2 0x210 JUMPI PUSH1 0x20 CALLDATASIZE PUSH1 0x3 NOT ADD SLT PUSH2 0x210 JUMPI PUSH2 0x4E1 PUSH1 0x4 CALLDATALOAD PUSH2 0x4DC PUSH1 0x0 SLOAD DUP3 LT PUSH2 0x1ABC JUMP JUMPDEST PUSH2 0x988 JUMP JUMPDEST POP PUSH1 0x40 MLOAD PUSH2 0x4EE DUP2 PUSH2 0x5BB JUMP JUMPDEST DUP2 SLOAD PUSH1 0x1 PUSH1 0x1 PUSH1 0xA0 SHL SUB AND DUP2 MSTORE PUSH1 0x40 MLOAD SWAP1 PUSH2 0x418 SWAP1 PUSH2 0x51B DUP4 PUSH2 0x514 DUP2 PUSH1 0x1 DUP9 ADD PUSH2 0x9FC JUMP JUMPDEST SUB DUP5 PUSH2 0x5F6 JUMP JUMPDEST PUSH1 0x20 DUP2 ADD SWAP3 DUP4 MSTORE PUSH1 0x2 DUP5 ADD SLOAD SWAP4 PUSH1 0x40 DUP3 ADD SWAP5 DUP6 MSTORE PUSH2 0x53D PUSH1 0x3 DUP3 ADD SLOAD PUSH1 0xFF AND SWAP1 JUMP JUMPDEST ISZERO ISZERO PUSH1 0x60 DUP4 ADD SWAP1 DUP2 MSTORE PUSH2 0x57A PUSH2 0x56F PUSH1 0x5 PUSH1 0x4 DUP6 ADD SLOAD SWAP5 DUP6 PUSH1 0x80 DUP9 ADD MSTORE ADD SLOAD SWAP5 DUP6 PUSH1 0xA0 DUP3 ADD MSTORE MLOAD PUSH1 0x1 DUP1 PUSH1 0xA0 SHL SUB AND SWAP1 JUMP JUMPDEST SWAP6 MLOAD SWAP7 MLOAD SWAP2 MLOAD ISZERO ISZERO SWAP1 JUMP JUMPDEST SWAP1 PUSH1 0x40 MLOAD SWAP7 DUP8 SWAP7 DUP8 PUSH2 0x47B JUMP JUMPDEST CALLVALUE PUSH2 0x210 JUMPI PUSH1 0x0 CALLDATASIZE PUSH1 0x3 NOT ADD SLT PUSH2 0x210 JUMPI PUSH1 0x20 PUSH1 0x2 SLOAD PUSH1 0x40 MLOAD SWAP1 DUP2 MSTORE RETURN JUMPDEST PUSH4 0x4E487B71 PUSH1 0xE0 SHL PUSH1 0x0 MSTORE PUSH1 0x41 PUSH1 0x4 MSTORE PUSH1 0x24 PUSH1 0x0 REVERT JUMPDEST PUSH1 0xC0 DUP2 ADD SWAP1 DUP2 LT PUSH1 0x1 PUSH1 0x1 PUSH1 0x40 SHL SUB DUP3 GT OR PUSH2 0x5D6 JUMPI PUSH1 0x40 MSTORE JUMP JUMPDEST PUSH2 0x5A5 JUMP JUMPDEST PUSH1 0x40 DUP2 ADD SWAP1 DUP2 LT PUSH1 0x1 PUSH1 0x1 PUSH1 0x40 SHL SUB DUP3 GT OR PUSH2 0x5D6 JUMPI PUSH1 0x40 MSTORE JUMP JUMPDEST SWAP1 PUSH1 0x1F DUP1 NOT SWAP2 ADD AND DUP2 ADD SWAP1 DUP2 LT PUSH1 0x1 PUSH1 0x1 PUSH1 0x40 SHL SUB DUP3 GT OR PUSH2 0x5D6 JUMPI PUSH1 0x40 MSTORE JUMP JUMPDEST PUSH1 0x40 MLOAD SWAP1 PUSH2 0x160 DUP3 ADD DUP3 DUP2 LT PUSH1 0x1 PUSH1 0x1 PUSH1 0x40 SHL SUB DUP3 GT OR PUSH2 0x5D6 JUMPI PUSH1 0x40 MSTORE JUMP JUMPDEST PUSH1 0x40 MLOAD SWAP1 PUSH2 0x644 DUP3 PUSH2 0x5BB JUMP JUMPDEST JUMP JUMPDEST PUSH1 0x1 PUSH1 0x1 PUSH1 0x40 SHL SUB DUP2 GT PUSH2 0x5D6 JUMPI PUSH1 0x1F ADD PUSH1 0x1F NOT AND PUSH1 0x20 ADD SWAP1 JUMP JUMPDEST DUP2 PUSH1 0x1F DUP3 ADD SLT ISZERO PUSH2 0x210 JUMPI DUP1 CALLDATALOAD SWAP1 PUSH2 0x678 DUP3 PUSH2 0x646 JUMP JUMPDEST SWAP3 PUSH2 0x686 PUSH1 0x40 MLOAD SWAP5 DUP6 PUSH2 0x5F6 JUMP JUMPDEST DUP3 DUP5 MSTORE PUSH1 0x20 DUP4 DUP4 ADD ADD GT PUSH2 0x210 JUMPI DUP2 PUSH1 0x0 SWAP3 PUSH1 0x20 DUP1 SWAP4 ADD DUP4 DUP7 ADD CALLDATACOPY DUP4 ADD ADD MSTORE SWAP1 JUMP JUMPDEST PUSH1 0x40 DUP1 PUSH1 0x3 NOT CALLDATASIZE ADD SLT PUSH2 0x210 JUMPI PUSH1 0x4 CALLDATALOAD SWAP1 PUSH1 0x24 CALLDATALOAD PUSH1 0x1 PUSH1 0x1 PUSH1 0x40 SHL SUB DUP2 GT PUSH2 0x210 JUMPI PUSH2 0x6D8 SWAP1 CALLDATASIZE SWAP1 PUSH1 0x4 ADD PUSH2 0x661 JUMP JUMPDEST SWAP1 PUSH2 0x6E6 PUSH1 0x0 SLOAD DUP5 LT PUSH2 0x1ABC JUMP JUMPDEST PUSH1 0xFF PUSH1 0x3 PUSH2 0x6F3 DUP6 PUSH2 0x988 JUMP JUMPDEST POP ADD SLOAD AND ISZERO PUSH2 0x908 JUMPI PUSH32 0x703BE6EF5712F36524A6139DD020A687CACAFA82AFD15D127DEAC719431463AB PUSH2 0x84A SWAP2 PUSH2 0x72D DUP5 MLOAD ISZERO ISZERO PUSH2 0x1AFF JUMP JUMPDEST PUSH2 0x746 PUSH1 0x2 PUSH2 0x73B DUP8 PUSH2 0x988 JUMP JUMPDEST POP ADD SLOAD CALLVALUE LT ISZERO PUSH2 0x1B42 JUMP JUMPDEST PUSH2 0x8A0 DUP2 MLOAD PUSH2 0x814 DUP7 PUSH1 0x20 SWAP3 DUP10 DUP5 DUP3 ADD DUP3 PUSH2 0x786 DUP4 CALLER TIMESTAMP DUP6 SWAP2 PUSH1 0x54 SWAP4 SWAP2 DUP4 MSTORE PUSH12 0xFFFFFFFFFFFFFFFFFFFFFFFF NOT SWAP1 PUSH1 0x60 SHL AND PUSH1 0x20 DUP4 ADD MSTORE PUSH1 0x34 DUP3 ADD MSTORE ADD SWAP1 JUMP JUMPDEST SUB SWAP3 PUSH2 0x79A PUSH1 0x1F NOT SWAP5 DUP6 DUP2 ADD DUP4 MSTORE DUP3 PUSH2 0x5F6 JUMP JUMPDEST MLOAD SWAP1 KECCAK256 SWAP2 PUSH1 0x3 SLOAD SWAP10 DUP11 SWAP2 PUSH2 0x827 DUP11 DUP1 MLOAD DUP11 DUP2 ADD SWAP1 PUSH2 0x7D4 DUP2 PUSH2 0x7C8 NUMBER DUP11 DUP7 SWAP1 SWAP2 PUSH1 0x40 SWAP3 DUP3 MSTORE PUSH1 0x20 DUP3 ADD MSTORE ADD SWAP1 JUMP JUMPDEST SUB DUP7 DUP2 ADD DUP4 MSTORE DUP3 PUSH2 0x5F6 JUMP JUMPDEST MLOAD SWAP1 KECCAK256 DUP2 MLOAD DUP1 DUP13 ADD DUP9 DUP2 MSTORE CALLER PUSH1 0x20 DUP3 ADD MSTORE SWAP1 SWAP11 SWAP2 SWAP10 DUP12 SWAP4 SWAP1 SWAP3 PUSH2 0x820 SWAP3 DUP15 SWAP3 SWAP1 PUSH2 0x809 SWAP1 DUP8 SWAP1 PUSH1 0x40 ADD SUB DUP10 DUP2 ADD DUP9 MSTORE DUP8 PUSH2 0x5F6 JUMP JUMPDEST MLOAD SWAP4 DUP5 SWAP3 DUP4 ADD PUSH2 0x149C JUMP JUMPDEST SUB DUP6 DUP2 ADD DUP4 MSTORE DUP3 PUSH2 0x5F6 JUMP JUMPDEST DUP9 DUP9 PUSH2 0x1D29 JUMP JUMPDEST SWAP13 PUSH2 0x83E DUP12 MLOAD SWAP5 DUP6 SWAP3 DUP12 DUP5 ADD SWAP8 TIMESTAMP SWAP3 CALLER SWAP1 DUP11 PUSH2 0x1B85 JUMP JUMPDEST SUB SWAP1 DUP2 ADD DUP4 MSTORE DUP3 PUSH2 0x5F6 JUMP JUMPDEST MLOAD SWAP1 KECCAK256 SWAP9 DUP11 PUSH2 0x857 PUSH2 0x617 JUMP JUMPDEST CALLER DUP2 MSTORE SWAP6 DUP7 ADD MSTORE DUP7 DUP6 ADD MSTORE PUSH1 0x60 DUP5 ADD MSTORE PUSH1 0x80 DUP4 ADD MSTORE PUSH1 0xA0 DUP3 ADD MSTORE TIMESTAMP PUSH1 0xC0 DUP3 ADD MSTORE PUSH1 0x0 PUSH1 0xE0 DUP3 ADD MSTORE PUSH2 0x886 PUSH2 0x1BCA JUMP JUMPDEST PUSH2 0x100 DUP3 ADD MSTORE PUSH1 0x0 PUSH2 0x120 DUP3 ADD MSTORE DUP6 PUSH2 0x140 DUP3 ADD MSTORE PUSH2 0x1BED JUMP JUMPDEST CALLER PUSH1 0x0 SWAP1 DUP2 MSTORE PUSH1 0x7 PUSH1 0x20 MSTORE PUSH1 0x40 SWAP1 KECCAK256 PUSH2 0x8BA SWAP1 DUP5 SWAP1 PUSH2 0x1A46 JUMP JUMPDEST DUP3 PUSH2 0x8CF DUP6 PUSH1 0x0 MSTORE PUSH1 0x8 PUSH1 0x20 MSTORE PUSH1 0x40 PUSH1 0x0 KECCAK256 SWAP1 JUMP JUMPDEST SSTORE PUSH2 0x8E3 PUSH2 0x8DE PUSH1 0x3 SLOAD PUSH2 0x1A91 JUMP JUMPDEST PUSH1 0x3 SSTORE JUMP JUMPDEST PUSH1 0x4 PUSH2 0x8EE DUP7 PUSH2 0x988 JUMP JUMPDEST POP ADD PUSH2 0x8FA DUP2 SLOAD PUSH2 0x1A91 JUMP JUMPDEST SWAP1 SSTORE MLOAD SWAP3 DUP4 MSTORE CALLER SWAP3 PUSH1 0x20 SWAP1 LOG4 STOP JUMPDEST MLOAD PUSH3 0x461BCD PUSH1 0xE5 SHL DUP2 MSTORE PUSH1 0x20 PUSH1 0x4 DUP3 ADD MSTORE PUSH1 0x13 PUSH1 0x24 DUP3 ADD MSTORE PUSH19 0x4167656E74206973206E6F7420616374697665 PUSH1 0x68 SHL PUSH1 0x44 DUP3 ADD MSTORE PUSH1 0x64 SWAP1 REVERT JUMPDEST CALLVALUE PUSH2 0x210 JUMPI PUSH1 0x0 CALLDATASIZE PUSH1 0x3 NOT ADD SLT PUSH2 0x210 JUMPI PUSH1 0x20 PUSH1 0x1 SLOAD PUSH1 0x40 MLOAD SWAP1 DUP2 MSTORE RETURN JUMPDEST CALLVALUE PUSH2 0x210 JUMPI PUSH1 0x0 CALLDATASIZE PUSH1 0x3 NOT ADD SLT PUSH2 0x210 JUMPI PUSH1 0xA SLOAD PUSH1 0x40 MLOAD PUSH1 0x1 PUSH1 0x1 PUSH1 0xA0 SHL SUB SWAP1 SWAP2 AND DUP2 MSTORE PUSH1 0x20 SWAP1 RETURN JUMPDEST PUSH1 0x0 SLOAD DUP2 LT ISZERO PUSH2 0x259 JUMPI PUSH1 0x6 SWAP1 PUSH1 0x0 DUP1 MSTORE MUL PUSH32 0x290DECD9548B62A8D60345A988386FC84BA6BC95484008F6362F93160EF3E563 ADD SWAP1 PUSH1 0x0 SWAP1 JUMP JUMPDEST SWAP1 PUSH1 0x1 DUP3 DUP2 SHR SWAP3 AND DUP1 ISZERO PUSH2 0x9F2 JUMPI JUMPDEST PUSH1 0x20 DUP4 LT EQ PUSH2 0x9DC JUMPI JUMP JUMPDEST PUSH4 0x4E487B71 PUSH1 0xE0 SHL PUSH1 0x0 MSTORE PUSH1 0x22 PUSH1 0x4 MSTORE PUSH1 0x24 PUSH1 0x0 REVERT JUMPDEST SWAP2 PUSH1 0x7F AND SWAP2 PUSH2 0x9D1 JUMP JUMPDEST SWAP1 PUSH1 0x0 SWAP3 SWAP2 DUP1 SLOAD SWAP2 PUSH2 0xA0D DUP4 PUSH2 0x9C2 JUMP JUMPDEST SWAP2 DUP3 DUP3 MSTORE PUSH1 0x1 SWAP4 DUP5 DUP2 AND SWAP1 DUP2 PUSH1 0x0 EQ PUSH2 0xA6F JUMPI POP PUSH1 0x1 EQ PUSH2 0xA2F JUMPI JUMPDEST POP POP POP POP JUMP JUMPDEST SWAP1 SWAP2 SWAP4 SWAP5 POP PUSH1 0x0 MSTORE PUSH1 0x20 SWAP3 DUP4 PUSH1 0x0 KECCAK256 SWAP3 DUP5 PUSH1 0x0 SWAP5 JUMPDEST DUP4 DUP7 LT PUSH2 0xA5B JUMPI POP POP POP POP ADD ADD SWAP1 CODESIZE DUP1 DUP1 DUP1 PUSH2 0xA29 JUMP JUMPDEST DUP1 SLOAD DUP6 DUP8 ADD DUP4 ADD MSTORE SWAP5 ADD SWAP4 DUP6 SWAP1 DUP3 ADD PUSH2 0xA44 JUMP JUMPDEST SWAP3 SWAP5 POP POP POP PUSH1 0x20 SWAP4 SWAP5 POP PUSH1 0xFF NOT AND DUP4 DUP4 ADD MSTORE ISZERO ISZERO PUSH1 0x5 SHL ADD ADD SWAP1 CODESIZE DUP1 DUP1 DUP1 PUSH2 0xA29 JUMP JUMPDEST SWAP1 PUSH2 0x644 PUSH2 0xAA6 SWAP3 PUSH1 0x40 MLOAD SWAP4 DUP5 DUP1 SWAP3 PUSH2 0x9FC JUMP JUMPDEST SUB DUP4 PUSH2 0x5F6 JUMP JUMPDEST CALLVALUE PUSH2 0x210 JUMPI PUSH1 0x20 CALLDATASIZE PUSH1 0x3 NOT ADD SLT PUSH2 0x210 JUMPI PUSH1 0x4 CALLDATALOAD PUSH1 0x0 SLOAD DUP2 LT ISZERO PUSH2 0x210 JUMPI PUSH2 0xAD4 SWAP1 PUSH2 0x988 JUMP JUMPDEST POP PUSH1 0x1 DUP1 PUSH1 0xA0 SHL SUB DUP2 SLOAD AND PUSH2 0x418 PUSH1 0x40 MLOAD SWAP3 PUSH2 0xAFE DUP5 PUSH2 0xAF7 DUP2 PUSH1 0x1 DUP6 ADD PUSH2 0x9FC JUMP JUMPDEST SUB DUP6 PUSH2 0x5F6 JUMP JUMPDEST PUSH1 0x2 DUP2 ADD SLOAD SWAP1 PUSH1 0xFF PUSH1 0x3 DUP3 ADD SLOAD AND PUSH1 0x5 PUSH1 0x4 DUP4 ADD SLOAD SWAP3 ADD SLOAD SWAP3 PUSH1 0x40 MLOAD SWAP7 DUP8 SWAP7 DUP8 PUSH2 0x47B JUMP JUMPDEST CALLVALUE PUSH2 0x210 JUMPI PUSH1 0x0 CALLDATASIZE PUSH1 0x3 NOT ADD SLT PUSH2 0x210 JUMPI PUSH1 0x20 PUSH1 0xFF PUSH1 0x5 SLOAD PUSH1 0xA0 SHR AND PUSH1 0x40 MLOAD SWAP1 ISZERO ISZERO DUP2 MSTORE RETURN JUMPDEST CALLVALUE PUSH2 0x210 JUMPI PUSH1 0x40 CALLDATASIZE PUSH1 0x3 NOT ADD SLT PUSH2 0x210 JUMPI PUSH1 0x4 CALLDATALOAD PUSH1 0x1 PUSH1 0x1 PUSH1 0x40 SHL SUB DUP2 GT PUSH2 0x210 JUMPI PUSH2 0xB79 SWAP1 CALLDATASIZE SWAP1 PUSH1 0x4 ADD PUSH2 0x661 JUMP JUMPDEST PUSH1 0x24 CALLDATALOAD DUP2 MLOAD ISZERO PUSH2 0xC30 JUMPI PUSH2 0xB8E DUP2 ISZERO ISZERO PUSH2 0x1756 JUMP JUMPDEST PUSH32 0xC29F819AC362FF9C94DE06666235808451AAFD8894A2DFFB86A080A965EFEAE3 PUSH2 0xC2B PUSH1 0x2 SLOAD SWAP3 PUSH2 0xBF0 PUSH2 0xBC1 PUSH2 0x637 JUMP JUMPDEST CALLER DUP2 MSTORE DUP7 PUSH1 0x20 DUP3 ADD MSTORE DUP3 PUSH1 0x40 DUP3 ADD MSTORE PUSH2 0xBDD PUSH1 0x60 DUP3 ADD PUSH1 0x1 SWAP1 MSTORE JUMP JUMPDEST PUSH1 0x0 PUSH1 0x80 DUP3 ADD MSTORE PUSH1 0x0 PUSH1 0xA0 DUP3 ADD MSTORE PUSH2 0x18DA JUMP JUMPDEST CALLER PUSH1 0x0 SWAP1 DUP2 MSTORE PUSH1 0x6 PUSH1 0x20 MSTORE PUSH1 0x40 SWAP1 KECCAK256 PUSH2 0xC0A SWAP1 DUP6 SWAP1 PUSH2 0x1A46 JUMP JUMPDEST PUSH2 0xC1D PUSH2 0xC18 PUSH1 0x2 SLOAD PUSH2 0x1A91 JUMP JUMPDEST PUSH1 0x2 SSTORE JUMP JUMPDEST PUSH1 0x40 MLOAD SWAP2 DUP3 SWAP2 CALLER SWAP7 DUP4 PUSH2 0x1AA5 JUMP JUMPDEST SUB SWAP1 LOG3 STOP JUMPDEST PUSH1 0x40 MLOAD PUSH3 0x461BCD PUSH1 0xE5 SHL DUP2 MSTORE PUSH1 0x20 PUSH1 0x4 DUP3 ADD MSTORE PUSH1 0x19 PUSH1 0x24 DUP3 ADD MSTORE PUSH32 0x4D6F64656C2055524C2063616E6E6F7420626520656D70747900000000000000 PUSH1 0x44 DUP3 ADD MSTORE PUSH1 0x64 SWAP1 REVERT JUMPDEST CALLVALUE PUSH2 0x210 JUMPI PUSH1 0x0 CALLDATASIZE PUSH1 0x3 NOT ADD SLT PUSH2 0x210 JUMPI PUSH1 0x20 PUSH1 0x3 SLOAD PUSH1 0x40 MLOAD SWAP1 DUP2 MSTORE RETURN JUMPDEST CALLVALUE PUSH2 0x210 JUMPI PUSH1 0x40 CALLDATASIZE PUSH1 0x3 NOT ADD SLT PUSH2 0x210 JUMPI PUSH2 0xCAC PUSH2 0x1FA JUMP JUMPDEST PUSH1 0x1 PUSH1 0x1 PUSH1 0xA0 SHL SUB AND PUSH1 0x0 SWAP1 DUP2 MSTORE PUSH1 0x6 PUSH1 0x20 MSTORE PUSH1 0x40 SWAP1 KECCAK256 DUP1 SLOAD PUSH1 0x24 CALLDATALOAD SWAP2 SWAP1 DUP3 LT ISZERO PUSH2 0x210 JUMPI PUSH1 0x20 SWAP2 PUSH2 0x2A8 SWAP2 PUSH2 0x241 JUMP JUMPDEST CALLVALUE PUSH2 0x210 JUMPI PUSH1 0x40 CALLDATASIZE PUSH1 0x3 NOT ADD SLT PUSH2 0x210 JUMPI PUSH1 0x4 CALLDATALOAD PUSH11 0xFFFFFFFFFFFFFFFFFFFFFF NOT DUP2 AND DUP1 DUP3 SUB PUSH2 0x210 JUMPI PUSH2 0xD0F PUSH2 0x215 JUMP JUMPDEST PUSH1 0xA SLOAD PUSH1 0x1 PUSH1 0x1 PUSH1 0xA0 SHL SUB SWAP2 SWAP1 PUSH2 0xD29 SWAP1 DUP4 AND CALLER EQ PUSH2 0x1715 JUMP JUMPDEST PUSH11 0xFFFFFFFFFFFFFFFFFFFFFF PUSH1 0xA8 SHL SWAP4 PUSH1 0x58 SHR DUP5 PUSH1 0x4 SLOAD AND OR PUSH1 0x4 SSTORE AND SWAP2 DUP3 PUSH1 0x1 PUSH1 0xA0 SHL SWAP2 PUSH1 0x5 SLOAD AND OR OR PUSH1 0x5 SSTORE PUSH32 0xC5861F1F778380DACB15E8DC555EB44A1C032C847FD031D12883E75CEF297975 PUSH1 0x0 DUP1 LOG3 STOP JUMPDEST PUSH1 0x1 SLOAD DUP2 LT ISZERO PUSH2 0x259 JUMPI PUSH1 0xB SWAP1 PUSH1 0x1 PUSH1 0x0 MSTORE MUL PUSH32 0xB10E2D527612073B26EECDFD717E6A320CF44B4AFAC2B0732D9FCBE2B7FA0CF6 ADD SWAP1 PUSH1 0x0 SWAP1 JUMP JUMPDEST SWAP8 SWAP4 SWAP2 SWAP5 PUSH2 0xDF3 PUSH2 0xE0B SWAP5 PUSH2 0x140 SWAP12 SWAP8 SWAP13 SWAP15 SWAP14 SWAP13 PUSH2 0xE26 SWAP11 SWAP10 SWAP5 PUSH1 0x1 DUP1 PUSH1 0xA0 SHL SUB AND DUP13 MSTORE PUSH1 0x20 DUP13 ADD MSTORE PUSH2 0x160 DUP1 PUSH1 0x40 DUP14 ADD MSTORE DUP12 ADD SWAP1 PUSH2 0x456 JUMP JUMPDEST SWAP3 PUSH1 0x60 DUP11 ADD MSTORE PUSH1 0x80 DUP10 ADD MSTORE DUP8 DUP3 SUB PUSH1 0xA0 DUP10 ADD MSTORE PUSH2 0x456 JUMP JUMPDEST SWAP3 PUSH1 0xC0 DUP7 ADD MSTORE ISZERO ISZERO PUSH1 0xE0 DUP6 ADD MSTORE DUP4 DUP3 SUB PUSH2 0x100 DUP6 ADD MSTORE PUSH2 0x456 JUMP JUMPDEST SWAP5 PUSH2 0x120 DUP3 ADD MSTORE ADD MSTORE JUMP JUMPDEST CALLVALUE PUSH2 0x210 JUMPI PUSH1 0x20 CALLDATASIZE PUSH1 0x3 NOT ADD SLT PUSH2 0x210 JUMPI PUSH1 0x4 CALLDATALOAD PUSH1 0x1 SLOAD DUP2 LT ISZERO PUSH2 0x210 JUMPI PUSH2 0xE58 SWAP1 PUSH2 0xD7E JUMP JUMPDEST POP PUSH1 0x1 DUP1 PUSH1 0xA0 SHL SUB DUP2 SLOAD AND PUSH2 0x418 PUSH1 0x1 DUP4 ADD SLOAD SWAP3 PUSH1 0x40 MLOAD SWAP1 PUSH2 0xE81 DUP3 PUSH2 0xAA6 DUP2 PUSH1 0x2 DUP6 ADD PUSH2 0x9FC JUMP JUMPDEST PUSH1 0x3 DUP2 ADD SLOAD PUSH1 0x4 DUP3 ADD SLOAD PUSH2 0xE97 PUSH1 0x5 DUP5 ADD PUSH2 0xA92 JUMP JUMPDEST PUSH1 0x6 DUP5 ADD SLOAD SWAP1 PUSH2 0xEAB PUSH1 0x7 DUP7 ADD SLOAD PUSH1 0xFF AND SWAP1 JUMP JUMPDEST SWAP3 PUSH2 0xEB8 PUSH1 0x8 DUP8 ADD PUSH2 0xA92 JUMP JUMPDEST SWAP5 PUSH1 0xA PUSH1 0x9 DUP9 ADD SLOAD SWAP8 ADD SLOAD SWAP8 PUSH1 0x40 MLOAD SWAP12 DUP13 SWAP12 DUP13 PUSH2 0xDB9 JUMP JUMPDEST CALLVALUE PUSH2 0x210 JUMPI PUSH1 0x0 CALLDATASIZE PUSH1 0x3 NOT ADD SLT PUSH2 0x210 JUMPI PUSH1 0x20 PUSH1 0x9 SLOAD PUSH1 0x40 MLOAD SWAP1 DUP2 MSTORE RETURN JUMPDEST CALLVALUE PUSH2 0x210 JUMPI PUSH1 0x0 CALLDATASIZE PUSH1 0x3 NOT ADD SLT PUSH2 0x210 JUMPI PUSH1 0x20 PUSH1 0x0 SLOAD PUSH1 0x40 MLOAD SWAP1 DUP2 MSTORE RETURN JUMPDEST CALLVALUE PUSH2 0x210 JUMPI PUSH1 0x0 CALLDATASIZE PUSH1 0x3 NOT ADD SLT PUSH2 0x210 JUMPI PUSH1 0x5 SLOAD PUSH1 0x40 MLOAD PUSH1 0x1 PUSH1 0x1 PUSH1 0xA0 SHL SUB SWAP1 SWAP2 AND DUP2 MSTORE PUSH1 0x20 SWAP1 RETURN JUMPDEST CALLVALUE PUSH2 0x210 JUMPI PUSH1 0x80 CALLDATASIZE PUSH1 0x3 NOT ADD SLT PUSH2 0x210 JUMPI PUSH1 0x4 CALLDATALOAD PUSH1 0x24 CALLDATALOAD PUSH1 0x1 PUSH1 0x1 PUSH1 0x40 SHL SUB DUP2 GT PUSH2 0x210 JUMPI PUSH2 0xF68 SWAP1 CALLDATASIZE SWAP1 PUSH1 0x4 ADD PUSH2 0x661 JUMP JUMPDEST SWAP1 PUSH1 0x44 CALLDATALOAD PUSH1 0x5 SLOAD PUSH1 0xFF DUP2 PUSH1 0xA0 SHR AND PUSH1 0x0 EQ PUSH2 0x11D5 JUMPI POP PUSH2 0xFA6 PUSH2 0xF89 PUSH2 0x203C JUMP JUMPDEST PUSH11 0xFFFFFFFFFFFFFFFFFFFFFF NOT DUP1 PUSH1 0x4 SLOAD PUSH1 0x58 SHL AND SWAP2 AND EQ PUSH2 0x1DE0 JUMP JUMPDEST PUSH2 0xFB3 PUSH1 0x1 SLOAD DUP4 LT PUSH2 0x1E1F JUMP JUMPDEST PUSH2 0xFD9 PUSH2 0xFD4 PUSH2 0xFD0 PUSH1 0x7 PUSH2 0xFC7 DUP7 PUSH2 0xD7E JUMP JUMPDEST POP ADD SLOAD PUSH1 0xFF AND SWAP1 JUMP JUMPDEST ISZERO SWAP1 JUMP JUMPDEST PUSH2 0x1E64 JUMP JUMPDEST PUSH2 0xFE6 PUSH1 0x64 DUP3 GT ISZERO PUSH2 0x1EB0 JUMP JUMPDEST PUSH2 0x1000 PUSH2 0xFF2 DUP4 PUSH2 0xD7E JUMP JUMPDEST POP PUSH1 0xA ADD SLOAD PUSH1 0x64 CALLDATALOAD EQ PUSH2 0x1EFC JUMP JUMPDEST PUSH2 0x1031 DUP4 MLOAD PUSH1 0x20 DUP6 ADD SWAP1 DUP2 KECCAK256 PUSH2 0x1014 PUSH2 0x1F3F JUMP JUMPDEST PUSH1 0x20 DUP2 MLOAD SWAP2 ADD KECCAK256 EQ SWAP1 DUP2 ISZERO PUSH2 0x11B9 JUMPI JUMPDEST DUP2 ISZERO PUSH2 0x119D JUMPI JUMPDEST POP PUSH2 0x1FAA JUMP JUMPDEST PUSH2 0x104E PUSH1 0x7 PUSH2 0x103F DUP5 PUSH2 0xD7E JUMP JUMPDEST POP ADD DUP1 SLOAD PUSH1 0xFF NOT AND PUSH1 0x1 OR SWAP1 SSTORE JUMP JUMPDEST PUSH2 0x1064 DUP4 PUSH1 0x8 PUSH2 0x105D DUP6 PUSH2 0xD7E JUMP JUMPDEST POP ADD PUSH2 0x180C JUMP JUMPDEST DUP1 PUSH1 0x9 PUSH2 0x1070 DUP5 PUSH2 0xD7E JUMP JUMPDEST POP ADD SSTORE PUSH1 0x1 PUSH2 0x107E DUP4 PUSH2 0xD7E JUMP JUMPDEST POP ADD SLOAD PUSH2 0x109B PUSH2 0x108D DUP3 PUSH2 0x988 JUMP JUMPDEST POP SLOAD PUSH1 0x1 PUSH1 0x1 PUSH1 0xA0 SHL SUB AND SWAP1 JUMP JUMPDEST SWAP1 PUSH1 0x2 PUSH2 0x10A7 DUP3 PUSH2 0x988 JUMP JUMPDEST POP ADD SLOAD SWAP2 PUSH1 0x5 PUSH2 0x10D6 PUSH2 0x10D0 PUSH2 0x10C9 PUSH2 0x10C2 PUSH1 0x9 SLOAD DUP9 PUSH2 0x1FF6 JUMP JUMPDEST PUSH1 0x64 SWAP1 DIV SWAP1 JUMP JUMPDEST DUP1 SWAP7 PUSH2 0x2009 JUMP JUMPDEST SWAP4 PUSH2 0x988 JUMP JUMPDEST POP ADD PUSH2 0x10E3 DUP4 DUP3 SLOAD PUSH2 0x2016 JUMP JUMPDEST SWAP1 SSTORE PUSH2 0x10F9 PUSH2 0x10F4 DUP5 PUSH1 0xB SLOAD PUSH2 0x2016 JUMP JUMPDEST PUSH1 0xB SSTORE JUMP JUMPDEST PUSH1 0x1 PUSH1 0x1 PUSH1 0xA0 SHL SUB AND SWAP5 PUSH1 0x0 DUP3 DUP8 DUP2 ISZERO PUSH2 0x1193 JUMPI JUMPDEST PUSH1 0x0 SWAP3 DUP4 SWAP3 DUP4 SWAP3 DUP4 SWAP3 CALL ISZERO PUSH2 0x118E JUMPI DUP5 PUSH32 0x69148261BAFE8DAD888D83EC403762C2B4D49A98677EFB08E063B268511A6778 PUSH2 0x1172 PUSH32 0x3752D299EE850882FF779A81F3571C4D0952AEC5F8FE5B833257FAE354EE5C17 SWAP7 PUSH1 0x40 MLOAD SWAP2 DUP3 SWAP2 CALLER SWAP7 DUP4 PUSH2 0x1AA5 JUMP JUMPDEST SUB SWAP1 LOG3 PUSH1 0x40 DUP1 MLOAD SWAP2 DUP3 MSTORE PUSH1 0x20 DUP3 ADD SWAP3 SWAP1 SWAP3 MSTORE SWAP1 DUP2 SWAP1 DUP2 ADD PUSH2 0xC2B JUMP JUMPDEST PUSH2 0x2023 JUMP JUMPDEST PUSH2 0x8FC SWAP3 POP PUSH2 0x110E JUMP JUMPDEST SWAP1 POP DUP5 MLOAD SWAP1 KECCAK256 PUSH2 0x11AB PUSH2 0x1F86 JUMP JUMPDEST PUSH1 0x20 DUP2 MLOAD SWAP2 ADD KECCAK256 EQ CODESIZE PUSH2 0x102B JUMP JUMPDEST SWAP1 POP DUP5 MLOAD DUP2 KECCAK256 PUSH2 0x11C7 PUSH2 0x1F63 JUMP JUMPDEST PUSH1 0x20 DUP2 MLOAD SWAP2 ADD KECCAK256 EQ SWAP1 PUSH2 0x1024 JUMP JUMPDEST PUSH2 0x11E9 SWAP1 PUSH1 0x1 PUSH1 0x1 PUSH1 0xA0 SHL SUB AND CALLER EQ PUSH2 0x1D9C JUMP JUMPDEST PUSH2 0xFA6 JUMP JUMPDEST CALLVALUE PUSH2 0x210 JUMPI PUSH1 0x20 CALLDATASIZE PUSH1 0x3 NOT ADD SLT PUSH2 0x210 JUMPI PUSH1 0x4 CALLDATALOAD PUSH1 0x0 MSTORE PUSH1 0x8 PUSH1 0x20 MSTORE PUSH1 0x20 PUSH1 0x40 PUSH1 0x0 KECCAK256 SLOAD PUSH1 0x40 MLOAD SWAP1 DUP2 MSTORE RETURN JUMPDEST CALLVALUE PUSH2 0x210 JUMPI PUSH1 0x20 DUP1 PUSH1 0x3 NOT CALLDATASIZE ADD SLT PUSH2 0x210 JUMPI PUSH1 0x1 PUSH1 0x1 PUSH1 0xA0 SHL SUB PUSH2 0x123C PUSH2 0x1FA JUMP JUMPDEST AND PUSH1 0x0 MSTORE PUSH1 0x7 DUP2 MSTORE PUSH1 0x40 PUSH1 0x0 KECCAK256 SWAP1 PUSH1 0x40 MLOAD SWAP1 DUP2 DUP2 DUP5 SLOAD SWAP2 DUP3 DUP2 MSTORE ADD SWAP4 PUSH1 0x0 MSTORE DUP2 PUSH1 0x0 KECCAK256 SWAP2 PUSH1 0x0 SWAP1 JUMPDEST DUP3 DUP3 LT PUSH2 0x127B JUMPI PUSH2 0x418 DUP6 PUSH2 0x40C DUP2 DUP10 SUB DUP3 PUSH2 0x5F6 JUMP JUMPDEST DUP4 SLOAD DUP7 MSTORE SWAP5 DUP6 ADD SWAP5 PUSH1 0x1 SWAP4 DUP5 ADD SWAP4 SWAP1 SWAP2 ADD SWAP1 PUSH2 0x1264 JUMP JUMPDEST CALLVALUE PUSH2 0x210 JUMPI PUSH1 0x20 CALLDATASIZE PUSH1 0x3 NOT ADD SLT PUSH2 0x210 JUMPI PUSH1 0x4 CALLDATALOAD PUSH2 0x12BB PUSH1 0x1 DUP1 PUSH1 0xA0 SHL SUB PUSH1 0xA SLOAD AND CALLER EQ PUSH2 0x1715 JUMP JUMPDEST PUSH1 0x14 DUP2 GT PUSH2 0x12C8 JUMPI PUSH1 0x9 SSTORE STOP JUMPDEST PUSH1 0x40 MLOAD PUSH3 0x461BCD PUSH1 0xE5 SHL DUP2 MSTORE PUSH1 0x20 PUSH1 0x4 DUP3 ADD MSTORE PUSH1 0x15 PUSH1 0x24 DUP3 ADD MSTORE PUSH21 0x4665652063616E6E6F742065786365656420323025 PUSH1 0x58 SHL PUSH1 0x44 DUP3 ADD MSTORE PUSH1 0x64 SWAP1 REVERT JUMPDEST SWAP7 SWAP6 SWAP5 SWAP2 SWAP3 PUSH2 0x133D SWAP4 PUSH1 0xA0 SWAP6 SWAP3 PUSH1 0x1 DUP1 DUP9 SHL SUB AND DUP10 MSTORE PUSH1 0x20 DUP10 ADD MSTORE PUSH1 0x40 DUP9 ADD MSTORE ISZERO ISZERO PUSH1 0x60 DUP8 ADD MSTORE PUSH1 0xC0 PUSH1 0x80 DUP8 ADD MSTORE PUSH1 0xC0 DUP7 ADD SWAP1 PUSH2 0x456 JUMP JUMPDEST SWAP4 ADD MSTORE JUMP JUMPDEST CALLVALUE PUSH2 0x210 JUMPI PUSH1 0x20 CALLDATASIZE PUSH1 0x3 NOT ADD SLT PUSH2 0x210 JUMPI PUSH2 0x136B PUSH1 0x4 CALLDATALOAD PUSH2 0x1366 PUSH1 0x1 SLOAD DUP3 LT PUSH2 0x1E1F JUMP JUMPDEST PUSH2 0xD7E JUMP JUMPDEST POP PUSH2 0x1374 PUSH2 0x617 JUMP JUMPDEST DUP2 SLOAD PUSH1 0x1 PUSH1 0x1 PUSH1 0xA0 SHL SUB AND DUP2 MSTORE PUSH2 0x418 PUSH1 0x1 DUP4 ADD SLOAD SWAP2 PUSH1 0x20 DUP2 ADD SWAP3 DUP4 MSTORE PUSH2 0x139D PUSH1 0x2 DUP6 ADD PUSH2 0xA92 JUMP JUMPDEST PUSH1 0x40 DUP3 ADD MSTORE PUSH1 0x3 DUP5 ADD SLOAD PUSH1 0x60 DUP3 ADD MSTORE PUSH1 0x4 DUP5 ADD SLOAD PUSH1 0x80 DUP3 ADD MSTORE PUSH2 0x13C2 PUSH1 0x5 DUP6 ADD PUSH2 0xA92 JUMP JUMPDEST PUSH1 0xA0 DUP3 ADD MSTORE PUSH1 0x6 DUP5 ADD SLOAD SWAP4 PUSH1 0xC0 DUP3 ADD SWAP5 DUP6 MSTORE PUSH2 0x13E2 PUSH1 0x7 DUP3 ADD SLOAD PUSH1 0xFF AND SWAP1 JUMP JUMPDEST ISZERO ISZERO PUSH1 0xE0 DUP4 ADD SWAP1 DUP2 MSTORE SWAP2 PUSH2 0x1468 PUSH2 0x145D PUSH2 0x13FE PUSH1 0x8 DUP6 ADD PUSH2 0xA92 JUMP JUMPDEST SWAP3 PUSH2 0x100 DUP2 ADD SWAP4 DUP5 MSTORE PUSH1 0xA PUSH1 0x9 DUP7 ADD SLOAD SWAP6 PUSH2 0x120 DUP4 ADD SWAP7 DUP8 MSTORE ADD SLOAD PUSH2 0x140 DUP3 ADD MSTORE PUSH2 0x143E PUSH2 0x1432 DUP3 MLOAD PUSH1 0x1 DUP1 PUSH1 0xA0 SHL SUB AND SWAP1 JUMP JUMPDEST PUSH1 0x1 PUSH1 0x1 PUSH1 0xA0 SHL SUB AND SWAP1 JUMP JUMPDEST CALLER EQ DUP1 ISZERO PUSH2 0x1479 JUMPI JUMPDEST PUSH2 0x1450 SWAP1 PUSH2 0x2208 JUMP JUMPDEST MLOAD PUSH1 0x1 PUSH1 0x1 PUSH1 0xA0 SHL SUB AND SWAP1 JUMP JUMPDEST SWAP6 MLOAD SWAP7 MLOAD SWAP4 MLOAD ISZERO ISZERO SWAP1 JUMP JUMPDEST SWAP1 MLOAD SWAP2 MLOAD SWAP3 PUSH1 0x40 MLOAD SWAP7 DUP8 SWAP7 DUP8 PUSH2 0x1305 JUMP JUMPDEST POP PUSH1 0x5 SLOAD PUSH2 0x1450 SWAP1 PUSH2 0x1493 SWAP1 PUSH1 0x1 PUSH1 0x1 PUSH1 0xA0 SHL SUB AND PUSH2 0x1432 JUMP JUMPDEST CALLER EQ SWAP1 POP PUSH2 0x1447 JUMP JUMPDEST SWAP1 PUSH1 0x20 PUSH2 0x14AD SWAP3 DUP2 DUP2 MSTORE ADD SWAP1 PUSH2 0x456 JUMP JUMPDEST SWAP1 JUMP JUMPDEST CALLVALUE PUSH2 0x210 JUMPI PUSH1 0x20 CALLDATASIZE PUSH1 0x3 NOT ADD SLT PUSH2 0x210 JUMPI PUSH1 0x0 DUP1 PUSH2 0x14F3 PUSH1 0x4 CALLDATALOAD PUSH1 0x5 SLOAD PUSH1 0xFF DUP2 PUSH1 0xA0 SHR AND DUP5 EQ PUSH2 0x15CF JUMPI POP PUSH2 0x14E6 PUSH2 0xF89 PUSH2 0x203C JUMP JUMPDEST PUSH2 0x1366 PUSH1 0x1 SLOAD DUP3 LT PUSH2 0x1E1F JUMP JUMPDEST POP PUSH1 0x3 DUP2 ADD SLOAD SWAP1 PUSH2 0x155C PUSH1 0x4 DUP3 ADD SLOAD PUSH2 0x154E PUSH1 0x5 PUSH2 0x153D PUSH1 0x40 MLOAD SWAP6 PUSH2 0x1526 DUP8 PUSH2 0x151F DUP2 PUSH1 0x2 DUP6 ADD PUSH2 0x9FC JUMP JUMPDEST SUB DUP9 PUSH2 0x5F6 JUMP JUMPDEST PUSH2 0x1536 PUSH1 0x40 MLOAD DUP1 SWAP5 DUP2 SWAP4 ADD PUSH2 0x9FC JUMP JUMPDEST SUB DUP3 PUSH2 0x5F6 JUMP JUMPDEST PUSH1 0x40 MLOAD SWAP5 DUP6 SWAP4 PUSH1 0x20 DUP6 ADD SWAP8 DUP9 PUSH2 0x1CC9 JUMP JUMPDEST SUB PUSH1 0x1F NOT DUP2 ADD DUP4 MSTORE DUP3 PUSH2 0x5F6 JUMP JUMPDEST MLOAD SWAP1 PUSH1 0x4 PUSH1 0x1 PUSH1 0x98 SHL ADD GAS STATICCALL PUSH2 0x1570 PUSH2 0x1CF9 JUMP JUMPDEST SWAP1 ISZERO PUSH2 0x1598 JUMPI PUSH2 0x158C DUP2 PUSH1 0x20 DUP1 PUSH2 0x418 SWAP5 MLOAD DUP4 ADD ADD SWAP2 ADD PUSH2 0x21D2 JUMP JUMPDEST PUSH1 0x40 MLOAD SWAP2 DUP3 SWAP2 DUP3 PUSH2 0x149C JUMP JUMPDEST PUSH1 0x40 MLOAD PUSH3 0x461BCD PUSH1 0xE5 SHL DUP2 MSTORE PUSH1 0x20 PUSH1 0x4 DUP3 ADD MSTORE PUSH1 0xF PUSH1 0x24 DUP3 ADD MSTORE PUSH15 0x191958DC9E5C1D0E8819985A5B1959 PUSH1 0x8A SHL PUSH1 0x44 DUP3 ADD MSTORE PUSH1 0x64 SWAP1 REVERT JUMPDEST PUSH2 0x15E3 SWAP1 PUSH1 0x1 PUSH1 0x1 PUSH1 0xA0 SHL SUB AND CALLER EQ PUSH2 0x1D9C JUMP JUMPDEST PUSH2 0x14E6 JUMP JUMPDEST CALLVALUE PUSH2 0x210 JUMPI PUSH1 0x0 DUP1 PUSH1 0x3 NOT CALLDATASIZE ADD SLT PUSH2 0x1636 JUMPI DUP1 DUP1 DUP1 DUP1 PUSH1 0x1 DUP1 PUSH1 0xA0 SHL SUB PUSH1 0xA SLOAD AND PUSH2 0x1614 DUP2 CALLER EQ PUSH2 0x1715 JUMP JUMPDEST PUSH1 0xB SLOAD SWAP1 DUP3 PUSH1 0xB SSTORE DUP3 DUP3 ISZERO PUSH2 0x162D JUMPI JUMPDEST CALL ISZERO PUSH2 0x118E JUMPI DUP1 RETURN JUMPDEST POP PUSH2 0x8FC PUSH2 0x1624 JUMP JUMPDEST DUP1 REVERT JUMPDEST CALLVALUE PUSH2 0x210 JUMPI PUSH1 0x0 CALLDATASIZE PUSH1 0x3 NOT ADD SLT PUSH2 0x210 JUMPI PUSH1 0x20 PUSH1 0xB SLOAD PUSH1 0x40 MLOAD SWAP1 DUP2 MSTORE RETURN JUMPDEST CALLVALUE PUSH2 0x210 JUMPI PUSH1 0x0 CALLDATASIZE PUSH1 0x3 NOT ADD SLT PUSH2 0x210 JUMPI PUSH1 0x20 PUSH1 0x4 SLOAD PUSH1 0x58 SHL PUSH1 0x40 MLOAD SWAP1 PUSH11 0xFFFFFFFFFFFFFFFFFFFFFF NOT AND DUP2 MSTORE RETURN JUMPDEST CALLVALUE PUSH2 0x210 JUMPI PUSH1 0x0 CALLDATASIZE PUSH1 0x3 NOT ADD SLT PUSH2 0x210 JUMPI PUSH2 0x16AC PUSH1 0x1 DUP1 PUSH1 0xA0 SHL SUB PUSH1 0xA SLOAD AND CALLER EQ PUSH2 0x1715 JUMP JUMPDEST PUSH1 0x5 DUP1 SLOAD PUSH1 0xFF PUSH1 0xA0 SHL NOT DUP2 AND PUSH1 0xA0 SWAP2 DUP3 SHR PUSH1 0xFF AND ISZERO SWAP1 SWAP2 SHL PUSH1 0xFF PUSH1 0xA0 SHL AND OR SWAP1 SSTORE STOP JUMPDEST CALLVALUE PUSH2 0x210 JUMPI PUSH1 0x40 CALLDATASIZE PUSH1 0x3 NOT ADD SLT PUSH2 0x210 JUMPI PUSH1 0x4 CALLDATALOAD PUSH1 0x2 PUSH2 0x1710 PUSH1 0x24 CALLDATALOAD SWAP3 PUSH2 0x16F9 PUSH1 0x0 SLOAD DUP3 LT PUSH2 0x1ABC JUMP JUMPDEST PUSH2 0x1705 PUSH2 0x2E6 DUP3 PUSH2 0x988 JUMP JUMPDEST PUSH2 0x4DC DUP5 ISZERO ISZERO PUSH2 0x1756 JUMP JUMPDEST POP ADD SSTORE STOP JUMPDEST ISZERO PUSH2 0x171C JUMPI JUMP JUMPDEST PUSH1 0x40 MLOAD PUSH3 0x461BCD PUSH1 0xE5 SHL DUP2 MSTORE PUSH1 0x20 PUSH1 0x4 DUP3 ADD MSTORE PUSH1 0x12 PUSH1 0x24 DUP3 ADD MSTORE PUSH18 0x2737BA10383630BA3337B9369037BBB732B9 PUSH1 0x71 SHL PUSH1 0x44 DUP3 ADD MSTORE PUSH1 0x64 SWAP1 REVERT JUMPDEST ISZERO PUSH2 0x175D JUMPI JUMP JUMPDEST PUSH1 0x40 MLOAD PUSH3 0x461BCD PUSH1 0xE5 SHL DUP2 MSTORE PUSH1 0x20 PUSH1 0x4 DUP3 ADD MSTORE PUSH1 0x1C PUSH1 0x24 DUP3 ADD MSTORE PUSH32 0x5072696365206D7573742062652067726561746572207468616E203000000000 PUSH1 0x44 DUP3 ADD MSTORE PUSH1 0x64 SWAP1 REVERT JUMPDEST PUSH4 0x4E487B71 PUSH1 0xE0 SHL PUSH1 0x0 MSTORE PUSH1 0x0 PUSH1 0x4 MSTORE PUSH1 0x24 PUSH1 0x0 REVERT JUMPDEST SWAP1 PUSH1 0x1F DUP2 GT PUSH2 0x17C6 JUMPI POP POP POP JUMP JUMPDEST PUSH1 0x0 SWAP2 DUP3 MSTORE PUSH1 0x20 DUP3 KECCAK256 SWAP1 PUSH1 0x20 PUSH1 0x1F DUP6 ADD PUSH1 0x5 SHR DUP4 ADD SWAP5 LT PUSH2 0x1802 JUMPI JUMPDEST PUSH1 0x1F ADD PUSH1 0x5 SHR ADD SWAP2 JUMPDEST DUP3 DUP2 LT PUSH2 0x17F7 JUMPI POP POP POP JUMP JUMPDEST DUP2 DUP2 SSTORE PUSH1 0x1 ADD PUSH2 0x17EB JUMP JUMPDEST SWAP1 SWAP3 POP DUP3 SWAP1 PUSH2 0x17E2 JUMP JUMPDEST SWAP2 SWAP1 SWAP2 DUP3 MLOAD PUSH1 0x1 PUSH1 0x1 PUSH1 0x40 SHL SUB DUP2 GT PUSH2 0x5D6 JUMPI PUSH2 0x1833 DUP2 PUSH2 0x182D DUP5 SLOAD PUSH2 0x9C2 JUMP JUMPDEST DUP5 PUSH2 0x17B8 JUMP JUMPDEST PUSH1 0x20 DUP1 PUSH1 0x1F DUP4 GT PUSH1 0x1 EQ PUSH2 0x186F JUMPI POP DUP2 SWAP3 SWAP4 SWAP5 PUSH1 0x0 SWAP3 PUSH2 0x1864 JUMPI JUMPDEST POP POP DUP2 PUSH1 0x1 SHL SWAP2 PUSH1 0x0 NOT SWAP1 PUSH1 0x3 SHL SHR NOT AND OR SWAP1 SSTORE JUMP JUMPDEST ADD MLOAD SWAP1 POP CODESIZE DUP1 PUSH2 0x184E JUMP JUMPDEST SWAP1 PUSH1 0x1F NOT DUP4 AND SWAP6 PUSH2 0x1885 DUP6 PUSH1 0x0 MSTORE PUSH1 0x20 PUSH1 0x0 KECCAK256 SWAP1 JUMP JUMPDEST SWAP3 PUSH1 0x0 SWAP1 JUMPDEST DUP9 DUP3 LT PUSH2 0x18C2 JUMPI POP POP DUP4 PUSH1 0x1 SWAP6 SWAP7 SWAP8 LT PUSH2 0x18A9 JUMPI JUMPDEST POP POP POP DUP2 SHL ADD SWAP1 SSTORE JUMP JUMPDEST ADD MLOAD PUSH1 0x0 NOT PUSH1 0xF8 DUP5 PUSH1 0x3 SHL AND SHR NOT AND SWAP1 SSTORE CODESIZE DUP1 DUP1 PUSH2 0x189F JUMP JUMPDEST DUP1 PUSH1 0x1 DUP6 SWAP7 DUP3 SWAP5 SWAP7 DUP7 ADD MLOAD DUP2 SSTORE ADD SWAP6 ADD SWAP4 ADD SWAP1 PUSH2 0x188A JUMP JUMPDEST PUSH1 0x0 SLOAD PUSH1 0x1 PUSH1 0x40 SHL DUP2 LT ISZERO PUSH2 0x5D6 JUMPI PUSH2 0x18FA PUSH1 0x1 SWAP2 DUP3 DUP2 ADD PUSH1 0x0 SSTORE PUSH2 0x988 JUMP JUMPDEST SWAP3 SWAP1 SWAP3 PUSH2 0x1A41 JUMPI DUP1 MLOAD DUP4 SLOAD PUSH1 0x1 PUSH1 0x1 PUSH1 0xA0 SHL SUB NOT AND PUSH1 0x1 PUSH1 0x1 PUSH1 0xA0 SHL SUB SWAP2 SWAP1 SWAP2 AND OR DUP4 SSTORE DUP2 DUP4 ADD PUSH1 0x20 DUP1 DUP4 ADD MLOAD SWAP4 DUP5 MLOAD SWAP2 PUSH1 0x1 PUSH1 0x1 PUSH1 0x40 SHL SUB DUP4 GT PUSH2 0x5D6 JUMPI PUSH2 0x194D DUP4 PUSH2 0x1947 DUP7 SLOAD PUSH2 0x9C2 JUMP JUMPDEST DUP7 PUSH2 0x17B8 JUMP JUMPDEST DUP1 PUSH1 0x1F DUP5 GT PUSH1 0x1 EQ PUSH2 0x19CB JUMPI POP SWAP2 DUP1 DUP1 SWAP3 PUSH1 0xA0 SWAP7 SWAP6 SWAP5 PUSH1 0x5 SWAP9 PUSH1 0x0 SWAP5 PUSH2 0x19C0 JUMPI JUMPDEST POP POP SHL SWAP2 PUSH1 0x0 NOT SWAP1 PUSH1 0x3 SHL SHR NOT AND OR SWAP1 SSTORE JUMPDEST PUSH1 0x40 DUP2 ADD MLOAD PUSH1 0x2 DUP6 ADD SSTORE PUSH2 0x19AF PUSH2 0x199A PUSH1 0x60 DUP4 ADD MLOAD ISZERO ISZERO SWAP1 JUMP JUMPDEST PUSH1 0x3 DUP7 ADD SWAP1 PUSH1 0xFF DUP1 NOT DUP4 SLOAD AND SWAP2 ISZERO ISZERO AND OR SWAP1 SSTORE JUMP JUMPDEST PUSH1 0x80 DUP2 ADD MLOAD PUSH1 0x4 DUP6 ADD SSTORE ADD MLOAD SWAP2 ADD SSTORE JUMP JUMPDEST ADD MLOAD SWAP3 POP CODESIZE DUP1 PUSH2 0x196E JUMP JUMPDEST SWAP2 SWAP4 SWAP5 SWAP6 PUSH1 0x1F NOT DUP5 AND PUSH2 0x19E3 DUP8 PUSH1 0x0 MSTORE PUSH1 0x20 PUSH1 0x0 KECCAK256 SWAP1 JUMP JUMPDEST SWAP4 PUSH1 0x0 SWAP1 JUMPDEST DUP3 DUP3 LT PUSH2 0x1A2A JUMPI POP POP SWAP2 PUSH1 0x5 SWAP8 SWAP6 SWAP4 SWAP2 DUP6 PUSH1 0xA0 SWAP9 SWAP7 SWAP5 LT PUSH2 0x1A11 JUMPI JUMPDEST POP POP POP DUP2 SHL ADD SWAP1 SSTORE PUSH2 0x1980 JUMP JUMPDEST ADD MLOAD PUSH1 0x0 NOT PUSH1 0xF8 DUP5 PUSH1 0x3 SHL AND SHR NOT AND SWAP1 SSTORE CODESIZE DUP1 DUP1 PUSH2 0x1A04 JUMP JUMPDEST DUP1 DUP9 DUP7 SWAP8 DUP3 SWAP5 SWAP8 DUP8 ADD MLOAD DUP2 SSTORE ADD SWAP7 ADD SWAP5 ADD SWAP1 PUSH2 0x19E8 JUMP JUMPDEST PUSH2 0x17A2 JUMP JUMPDEST DUP1 SLOAD PUSH1 0x1 PUSH1 0x40 SHL DUP2 LT ISZERO PUSH2 0x5D6 JUMPI PUSH2 0x1A63 SWAP2 PUSH1 0x1 DUP3 ADD DUP2 SSTORE PUSH2 0x241 JUMP JUMPDEST DUP2 SWAP3 SWAP2 SLOAD SWAP1 PUSH1 0x3 SHL SWAP2 DUP3 SHL SWAP2 PUSH1 0x0 NOT SWAP1 SHL NOT AND OR SWAP1 SSTORE JUMP JUMPDEST PUSH4 0x4E487B71 PUSH1 0xE0 SHL PUSH1 0x0 MSTORE PUSH1 0x11 PUSH1 0x4 MSTORE PUSH1 0x24 PUSH1 0x0 REVERT JUMPDEST PUSH1 0x0 NOT DUP2 EQ PUSH2 0x1AA0 JUMPI PUSH1 0x1 ADD SWAP1 JUMP JUMPDEST PUSH2 0x1A7B JUMP JUMPDEST SWAP3 SWAP2 SWAP1 PUSH2 0x133D PUSH1 0x20 SWAP2 PUSH1 0x40 DUP7 MSTORE PUSH1 0x40 DUP7 ADD SWAP1 PUSH2 0x456 JUMP JUMPDEST ISZERO PUSH2 0x1AC3 JUMPI JUMP JUMPDEST PUSH1 0x40 MLOAD PUSH3 0x461BCD PUSH1 0xE5 SHL DUP2 MSTORE PUSH1 0x20 PUSH1 0x4 DUP3 ADD MSTORE PUSH1 0x14 PUSH1 0x24 DUP3 ADD MSTORE PUSH20 0x1059D95B9D08191BD95CC81B9BDD08195E1A5CDD PUSH1 0x62 SHL PUSH1 0x44 DUP3 ADD MSTORE PUSH1 0x64 SWAP1 REVERT JUMPDEST ISZERO PUSH2 0x1B06 JUMPI JUMP JUMPDEST PUSH1 0x40 MLOAD PUSH3 0x461BCD PUSH1 0xE5 SHL DUP2 MSTORE PUSH1 0x20 PUSH1 0x4 DUP3 ADD MSTORE PUSH1 0x14 PUSH1 0x24 DUP3 ADD MSTORE PUSH20 0x546578742063616E6E6F7420626520656D707479 PUSH1 0x60 SHL PUSH1 0x44 DUP3 ADD MSTORE PUSH1 0x64 SWAP1 REVERT JUMPDEST ISZERO PUSH2 0x1B49 JUMPI JUMP JUMPDEST PUSH1 0x40 MLOAD PUSH3 0x461BCD PUSH1 0xE5 SHL DUP2 MSTORE PUSH1 0x20 PUSH1 0x4 DUP3 ADD MSTORE PUSH1 0x14 PUSH1 0x24 DUP3 ADD MSTORE PUSH20 0x125B9CDD59999A58DA595B9D081C185E5B595B9D PUSH1 0x62 SHL PUSH1 0x44 DUP3 ADD MSTORE PUSH1 0x64 SWAP1 REVERT JUMPDEST SWAP2 PUSH1 0x74 SWAP6 SWAP5 SWAP4 SWAP2 DUP4 MSTORE PUSH12 0xFFFFFFFFFFFFFFFFFFFFFFFF NOT SWAP1 PUSH1 0x60 SHL AND PUSH1 0x20 DUP4 ADD MSTORE PUSH1 0x34 DUP3 ADD MSTORE PUSH2 0x1BBF DUP3 MLOAD DUP1 SWAP4 PUSH1 0x20 PUSH1 0x54 DUP6 ADD SWAP2 ADD PUSH2 0x433 JUMP JUMPDEST ADD SWAP1 PUSH1 0x54 DUP3 ADD MSTORE ADD SWAP1 JUMP JUMPDEST PUSH1 0x40 MLOAD SWAP1 PUSH1 0x20 DUP3 ADD DUP3 DUP2 LT PUSH1 0x1 PUSH1 0x1 PUSH1 0x40 SHL SUB DUP3 GT OR PUSH2 0x5D6 JUMPI PUSH1 0x40 MSTORE PUSH1 0x0 DUP3 MSTORE JUMP JUMPDEST PUSH1 0x1 SLOAD PUSH1 0x1 PUSH1 0x40 SHL DUP2 LT ISZERO PUSH2 0x5D6 JUMPI DUP1 PUSH1 0x1 PUSH2 0x1C0C SWAP3 ADD PUSH1 0x1 SSTORE PUSH2 0xD7E JUMP JUMPDEST SWAP2 SWAP1 SWAP2 PUSH2 0x1A41 JUMPI DUP1 MLOAD DUP3 SLOAD PUSH1 0x1 PUSH1 0x1 PUSH1 0xA0 SHL SUB NOT AND PUSH1 0x1 PUSH1 0x1 PUSH1 0xA0 SHL SUB SWAP1 SWAP2 AND OR DUP3 SSTORE PUSH1 0xA SWAP1 PUSH2 0x140 SWAP1 PUSH1 0x20 DUP2 ADD MLOAD PUSH1 0x1 DUP6 ADD SSTORE PUSH2 0x1C51 PUSH1 0x40 DUP3 ADD MLOAD PUSH1 0x2 DUP7 ADD PUSH2 0x180C JUMP JUMPDEST PUSH1 0x60 DUP2 ADD MLOAD PUSH1 0x3 DUP6 ADD SSTORE PUSH1 0x80 DUP2 ADD MLOAD PUSH1 0x4 DUP6 ADD SSTORE PUSH2 0x1C76 PUSH1 0xA0 DUP3 ADD MLOAD PUSH1 0x5 DUP7 ADD PUSH2 0x180C JUMP JUMPDEST PUSH1 0xC0 DUP2 ADD MLOAD PUSH1 0x6 DUP6 ADD SSTORE PUSH2 0x1CA5 PUSH2 0x1C90 PUSH1 0xE0 DUP4 ADD MLOAD ISZERO ISZERO SWAP1 JUMP JUMPDEST PUSH1 0x7 DUP7 ADD SWAP1 PUSH1 0xFF DUP1 NOT DUP4 SLOAD AND SWAP2 ISZERO ISZERO AND OR SWAP1 SSTORE JUMP JUMPDEST PUSH2 0x1CB7 PUSH2 0x100 DUP3 ADD MLOAD PUSH1 0x8 DUP7 ADD PUSH2 0x180C JUMP JUMPDEST PUSH2 0x120 DUP2 ADD MLOAD PUSH1 0x9 DUP6 ADD SSTORE ADD MLOAD SWAP2 ADD SSTORE JUMP JUMPDEST SWAP3 PUSH2 0x14AD SWAP5 SWAP3 PUSH2 0x1CEB SWAP3 DUP6 MSTORE PUSH1 0x20 DUP6 ADD MSTORE PUSH1 0x80 PUSH1 0x40 DUP6 ADD MSTORE PUSH1 0x80 DUP5 ADD SWAP1 PUSH2 0x456 JUMP JUMPDEST SWAP2 PUSH1 0x60 DUP2 DUP5 SUB SWAP2 ADD MSTORE PUSH2 0x456 JUMP JUMPDEST RETURNDATASIZE ISZERO PUSH2 0x1D24 JUMPI RETURNDATASIZE SWAP1 PUSH2 0x1D0A DUP3 PUSH2 0x646 JUMP JUMPDEST SWAP2 PUSH2 0x1D18 PUSH1 0x40 MLOAD SWAP4 DUP5 PUSH2 0x5F6 JUMP JUMPDEST DUP3 MSTORE RETURNDATASIZE PUSH1 0x0 PUSH1 0x20 DUP5 ADD RETURNDATACOPY JUMP JUMPDEST PUSH1 0x60 SWAP1 JUMP JUMPDEST SWAP1 SWAP2 PUSH2 0x1D48 PUSH1 0x0 SWAP5 SWAP4 PUSH2 0x154E DUP7 SWAP6 PUSH1 0x40 MLOAD SWAP5 DUP6 SWAP4 PUSH1 0x20 DUP6 ADD SWAP8 DUP9 PUSH2 0x1CC9 JUMP JUMPDEST MLOAD SWAP1 PUSH1 0x3 PUSH1 0x1 PUSH1 0x98 SHL ADD GAS STATICCALL PUSH2 0x1D5C PUSH2 0x1CF9 JUMP JUMPDEST SWAP1 ISZERO PUSH2 0x1D65 JUMPI SWAP1 JUMP JUMPDEST PUSH1 0x40 MLOAD PUSH3 0x461BCD PUSH1 0xE5 SHL DUP2 MSTORE PUSH1 0x20 PUSH1 0x4 DUP3 ADD MSTORE PUSH1 0xF PUSH1 0x24 DUP3 ADD MSTORE PUSH15 0x195B98DC9E5C1D0E8819985A5B1959 PUSH1 0x8A SHL PUSH1 0x44 DUP3 ADD MSTORE PUSH1 0x64 SWAP1 REVERT JUMPDEST ISZERO PUSH2 0x1DA3 JUMPI JUMP JUMPDEST PUSH1 0x40 MLOAD PUSH3 0x461BCD PUSH1 0xE5 SHL DUP2 MSTORE PUSH1 0x20 PUSH1 0x4 DUP3 ADD MSTORE PUSH1 0x15 PUSH1 0x24 DUP3 ADD MSTORE PUSH21 0x2737BA1030BABA3437B934BD32B2103BB7B935B2B9 PUSH1 0x59 SHL PUSH1 0x44 DUP3 ADD MSTORE PUSH1 0x64 SWAP1 REVERT JUMPDEST ISZERO PUSH2 0x1DE7 JUMPI JUMP JUMPDEST PUSH1 0x40 MLOAD PUSH3 0x461BCD PUSH1 0xE5 SHL DUP2 MSTORE PUSH1 0x20 PUSH1 0x4 DUP3 ADD MSTORE PUSH1 0x10 PUSH1 0x24 DUP3 ADD MSTORE PUSH16 0x496E76616C696420524F464C2061707 PUSH1 0x84 SHL PUSH1 0x44 DUP3 ADD MSTORE PUSH1 0x64 SWAP1 REVERT JUMPDEST ISZERO PUSH2 0x1E26 JUMPI JUMP JUMPDEST PUSH1 0x40 MLOAD PUSH3 0x461BCD PUSH1 0xE5 SHL DUP2 MSTORE PUSH1 0x20 PUSH1 0x4 DUP3 ADD MSTORE PUSH1 0x16 PUSH1 0x24 DUP3 ADD MSTORE PUSH22 0x14995C5D595CDD08191BD95CC81B9BDD08195E1A5CDD PUSH1 0x52 SHL PUSH1 0x44 DUP3 ADD MSTORE PUSH1 0x64 SWAP1 REVERT JUMPDEST ISZERO PUSH2 0x1E6B JUMPI JUMP JUMPDEST PUSH1 0x40 MLOAD PUSH3 0x461BCD PUSH1 0xE5 SHL DUP2 MSTORE PUSH1 0x20 PUSH1 0x4 DUP3 ADD MSTORE PUSH1 0x19 PUSH1 0x24 DUP3 ADD MSTORE PUSH32 0x5265717565737420616C72656164792066756C66696C6C656400000000000000 PUSH1 0x44 DUP3 ADD MSTORE PUSH1 0x64 SWAP1 REVERT JUMPDEST ISZERO PUSH2 0x1EB7 JUMPI JUMP JUMPDEST PUSH1 0x40 MLOAD PUSH3 0x461BCD PUSH1 0xE5 SHL DUP2 MSTORE PUSH1 0x20 PUSH1 0x4 DUP3 ADD MSTORE PUSH1 0x18 PUSH1 0x24 DUP3 ADD MSTORE PUSH32 0x436F6E666964656E6365206D75737420626520302D3130300000000000000000 PUSH1 0x44 DUP3 ADD MSTORE PUSH1 0x64 SWAP1 REVERT JUMPDEST ISZERO PUSH2 0x1F03 JUMPI JUMP JUMPDEST PUSH1 0x40 MLOAD PUSH3 0x461BCD PUSH1 0xE5 SHL DUP2 MSTORE PUSH1 0x20 PUSH1 0x4 DUP3 ADD MSTORE PUSH1 0x14 PUSH1 0x24 DUP3 ADD MSTORE PUSH20 0x92DCECC2D8D2C840E4CAE2EACAE6E840D0C2E6D PUSH1 0x63 SHL PUSH1 0x44 DUP3 ADD MSTORE PUSH1 0x64 SWAP1 REVERT JUMPDEST PUSH1 0x40 MLOAD SWAP1 PUSH2 0x1F4C DUP3 PUSH2 0x5DB JUMP JUMPDEST PUSH1 0x8 DUP3 MSTORE PUSH8 0x706F736974697665 PUSH1 0xC0 SHL PUSH1 0x20 DUP4 ADD MSTORE JUMP JUMPDEST PUSH1 0x40 MLOAD SWAP1 PUSH2 0x1F70 DUP3 PUSH2 0x5DB JUMP JUMPDEST PUSH1 0x7 DUP3 MSTORE PUSH7 0x1B995D5D1C985B PUSH1 0xCA SHL PUSH1 0x20 DUP4 ADD MSTORE JUMP JUMPDEST PUSH1 0x40 MLOAD SWAP1 PUSH2 0x1F93 DUP3 PUSH2 0x5DB JUMP JUMPDEST PUSH1 0x8 DUP3 MSTORE PUSH8 0x6E65676174697665 PUSH1 0xC0 SHL PUSH1 0x20 DUP4 ADD MSTORE JUMP JUMPDEST ISZERO PUSH2 0x1FB1 JUMPI JUMP JUMPDEST PUSH1 0x40 MLOAD PUSH3 0x461BCD PUSH1 0xE5 SHL DUP2 MSTORE PUSH1 0x20 PUSH1 0x4 DUP3 ADD MSTORE PUSH1 0x17 PUSH1 0x24 DUP3 ADD MSTORE PUSH32 0x496E76616C69642073656E74696D656E742076616C7565000000000000000000 PUSH1 0x44 DUP3 ADD MSTORE PUSH1 0x64 SWAP1 REVERT JUMPDEST DUP2 DUP2 MUL SWAP3 SWAP2 DUP2 ISZERO SWAP2 DUP5 DIV EQ OR ISZERO PUSH2 0x1AA0 JUMPI JUMP JUMPDEST SWAP2 SWAP1 DUP3 SUB SWAP2 DUP3 GT PUSH2 0x1AA0 JUMPI JUMP JUMPDEST SWAP2 SWAP1 DUP3 ADD DUP1 SWAP3 GT PUSH2 0x1AA0 JUMPI JUMP JUMPDEST PUSH1 0x40 MLOAD RETURNDATASIZE PUSH1 0x0 DUP3 RETURNDATACOPY RETURNDATASIZE SWAP1 REVERT JUMPDEST DUP1 MLOAD ISZERO PUSH2 0x259 JUMPI PUSH1 0x20 ADD SWAP1 JUMP JUMPDEST PUSH1 0x40 DUP1 MLOAD SWAP1 PUSH2 0x204A DUP3 PUSH2 0x5DB JUMP JUMPDEST PUSH1 0xE DUP3 MSTORE PUSH1 0x20 PUSH14 0x726F666C2E4F726967696E41707 PUSH1 0x94 SHL DUP2 DUP5 ADD MSTORE DUP2 MLOAD PUSH2 0x2071 DUP2 PUSH2 0x5DB JUMP JUMPDEST PUSH1 0x1 DUP2 MSTORE PUSH1 0x7B PUSH1 0xF9 SHL DUP3 DUP3 ADD MSTORE PUSH2 0x20AE DUP4 MLOAD SWAP2 DUP3 PUSH2 0x83E PUSH2 0x209C DUP7 DUP4 ADD SWAP9 DUP9 DUP11 MSTORE PUSH1 0x60 DUP5 ADD SWAP1 PUSH2 0x456 JUMP JUMPDEST PUSH1 0x1F NOT SWAP4 DUP5 DUP5 DUP4 SUB ADD DUP10 DUP6 ADD MSTORE PUSH2 0x456 JUMP JUMPDEST PUSH1 0x0 DUP1 SWAP5 DUP2 SWAP3 MLOAD SWAP1 PUSH20 0x100000000000000000000000000000000000103 GAS STATICCALL SWAP3 PUSH2 0x20D6 PUSH2 0x1CF9 JUMP JUMPDEST SWAP4 ISZERO PUSH2 0x218C JUMPI DUP4 MLOAD DUP5 ADD SWAP2 DUP4 DUP6 DUP3 DUP6 ADD SWAP5 SUB SLT PUSH2 0x2188 JUMPI DUP1 DUP6 ADD MLOAD SWAP5 PUSH1 0x1 PUSH1 0x1 PUSH1 0x40 SHL SUB SWAP1 DUP2 DUP8 AND DUP1 SWAP8 SUB PUSH2 0x2184 JUMPI DUP6 DUP2 ADD MLOAD SWAP2 DUP3 GT PUSH2 0x2184 JUMPI ADD SWAP2 DUP4 PUSH1 0x3F DUP5 ADD SLT ISZERO PUSH2 0x1636 JUMPI POP DUP2 ADD MLOAD PUSH2 0x212D SWAP3 SWAP2 DUP5 ADD PUSH2 0x219D JUMP JUMPDEST SWAP2 ISZERO DUP1 ISZERO SWAP1 PUSH2 0x2153 JUMPI JUMPDEST PUSH2 0x2143 JUMPI POP PUSH1 0x21 ADD MLOAD SWAP1 JUMP JUMPDEST MLOAD PUSH4 0x1205D29F PUSH1 0xE3 SHL DUP2 MSTORE PUSH1 0x4 SWAP1 REVERT JUMPDEST POP PUSH1 0x55 PUSH1 0xF8 SHL PUSH1 0x1 PUSH1 0x1 PUSH1 0xF8 SHL SUB NOT PUSH2 0x217C PUSH2 0x216E DUP6 PUSH2 0x202F JUMP JUMPDEST MLOAD PUSH1 0x1 PUSH1 0x1 PUSH1 0xF8 SHL SUB NOT AND SWAP1 JUMP JUMPDEST AND EQ ISZERO PUSH2 0x2137 JUMP JUMPDEST DUP4 DUP1 REVERT JUMPDEST POP DUP1 REVERT JUMPDEST DUP3 MLOAD PUSH4 0x1205D29F PUSH1 0xE3 SHL DUP2 MSTORE PUSH1 0x4 SWAP1 REVERT JUMPDEST SWAP1 SWAP3 SWAP2 SWAP3 PUSH2 0x21AA DUP2 PUSH2 0x646 JUMP JUMPDEST SWAP2 PUSH2 0x21B8 PUSH1 0x40 MLOAD SWAP4 DUP5 PUSH2 0x5F6 JUMP JUMPDEST DUP3 SWAP5 DUP3 DUP5 MSTORE DUP3 DUP3 ADD GT PUSH2 0x210 JUMPI PUSH1 0x20 PUSH2 0x644 SWAP4 ADD SWAP1 PUSH2 0x433 JUMP JUMPDEST PUSH1 0x20 DUP2 DUP4 SUB SLT PUSH2 0x210 JUMPI DUP1 MLOAD SWAP1 PUSH1 0x1 PUSH1 0x1 PUSH1 0x40 SHL SUB DUP3 GT PUSH2 0x210 JUMPI ADD SWAP1 DUP1 PUSH1 0x1F DUP4 ADD SLT ISZERO PUSH2 0x210 JUMPI DUP2 MLOAD PUSH2 0x14AD SWAP3 PUSH1 0x20 ADD PUSH2 0x219D JUMP JUMPDEST ISZERO PUSH2 0x220F JUMPI JUMP JUMPDEST PUSH1 0x40 MLOAD PUSH3 0x461BCD PUSH1 0xE5 SHL DUP2 MSTORE PUSH1 0x20 PUSH1 0x4 DUP3 ADD MSTORE PUSH1 0x1E PUSH1 0x24 DUP3 ADD MSTORE PUSH32 0x4E6F7420617574686F72697A656420746F207669657720726571756573740000 PUSH1 0x44 DUP3 ADD MSTORE PUSH1 0x64 SWAP1 REVERT JUMPDEST ISZERO PUSH2 0x225B JUMPI JUMP JUMPDEST PUSH1 0x40 MLOAD PUSH3 0x461BCD PUSH1 0xE5 SHL DUP2 MSTORE PUSH1 0x20 PUSH1 0x4 DUP3 ADD MSTORE PUSH1 0xF PUSH1 0x24 DUP3 ADD MSTORE PUSH15 0x2737BA1030B3B2B73A1037BBB732B9 PUSH1 0x89 SHL PUSH1 0x44 DUP3 ADD MSTORE PUSH1 0x64 SWAP1 REVERT INVALID LOG2 PUSH5 0x6970667358 0x22 SLT KECCAK256 SWAP5 0xA7 0xDE 0x25 LOG4 0xAB SAR CODECOPY MSTORE8 0x5F 0xD2 DUP7 POP PUSH2 0xBD1B SDIV 0xEB MSTORE8 0xF6 SWAP11 0x25 0xC3 0xE6 LOG4 0xB9 PUSH18 0xB5E5C04D3264736F6C634300081300330000 "},"methodIdentifiers":{"agents(uint256)":"513856c8","agentsByOwner(address,uint256)":"768eb96f","expectedROFLAppId()":"e4656d47","getAgent(uint256)":"2de5aaf7","getAgentCount()":"91cab63e","getAgentsByOwner(address)":"1ab6f888","getPlatformStats()":"136d8883","getRequest(uint256)":"c58343ef","getRequestCount()":"3fad1834","getRequestText(uint256)":"c62e5ec8","getRequestsByUser(address)":"a766d4b0","nextAgentId()":"30efc498","nextRequestId()":"6a84a985","platformFeePercent()":"8c639a85","platformOwner()":"4df8ccb1","registerAgent(string,uint256)":"68fb4091","registerROFLWorker(bytes21,address)":"79303ac4","requestHashToId(bytes32)":"a6387285","requestSentiment(uint256,string)":"319bd4b6","requests(uint256)":"81d12c58","requestsByUser(address,uint256)":"003b465c","roflEnabled()":"5f9eefef","roflWorkerAddress()":"9372478a","submitResult(uint256,string,uint256,bytes32)":"96e7f920","toggleAgent(uint256)":"00bab438","toggleROFL()":"e81c1201","totalPlatformFees()":"d3631fa5","updateAgentPrice(uint256,uint256)":"fd0928a2","updatePlatformFee(uint256)":"aa0b5988","withdrawPlatformFees()":"d0b7830b"}}}}}