{
  "_format": "hh-sol-artifact-1",
  "contractName": "ConfidentialSentimentAnalysis",
  "sourceName": "contracts/ConfidentialSentimentAnalysis.sol",
  "abi": [
    {
      "inputs": [],
      "stateMutability": "nonpayable",
      "type": "constructor"
    },
    {
      "inputs": [],
      "name": "SubcallError",
      "type": "error"
    },
    {
      "anonymous": false,
      "inputs": [
        {
          "indexed": true,
          "internalType": "uint256",
          "name": "agentId",
          "type": "uint256"
        },
        {
          "indexed": true,
          "internalType": "address",
          "name": "owner",
          "type": "address"
        },
        {
          "indexed": false,
          "internalType": "string",
          "name": "modelUrl",
          "type": "string"
        },
        {
          "indexed": false,
          "internalType": "uint256",
          "name": "price",
          "type": "uint256"
        }
      ],
      "name": "AgentRegistered",
      "type": "event"
    },
    {
      "anonymous": false,
      "inputs": [
        {
          "indexed": true,
          "internalType": "uint256",
          "name": "requestId",
          "type": "uint256"
        },
        {
          "indexed": true,
          "internalType": "address",
          "name": "agentOwner",
          "type": "address"
        },
        {
          "indexed": false,
          "internalType": "uint256",
          "name": "amount",
          "type": "uint256"
        },
        {
          "indexed": false,
          "internalType": "uint256",
          "name": "platformFee",
          "type": "uint256"
        }
      ],
      "name": "PaymentProcessed",
      "type": "event"
    },
    {
      "anonymous": false,
      "inputs": [
        {
          "indexed": true,
          "internalType": "bytes21",
          "name": "appId",
          "type": "bytes21"
        },
        {
          "indexed": true,
          "internalType": "address",
          "name": "workerAddress",
          "type": "address"
        }
      ],
      "name": "ROFLWorkerRegistered",
      "type": "event"
    },
    {
      "anonymous": false,
      "inputs": [
        {
          "indexed": true,
          "internalType": "uint256",
          "name": "requestId",
          "type": "uint256"
        },
        {
          "indexed": true,
          "internalType": "address",
          "name": "requester",
          "type": "address"
        },
        {
          "indexed": true,
          "internalType": "uint256",
          "name": "agentId",
          "type": "uint256"
        },
        {
          "indexed": false,
          "internalType": "bytes32",
          "name": "requestHash",
          "type": "bytes32"
        }
      ],
      "name": "SentimentRequested",
      "type": "event"
    },
    {
      "anonymous": false,
      "inputs": [
        {
          "indexed": true,
          "internalType": "uint256",
          "name": "requestId",
          "type": "uint256"
        },
        {
          "indexed": false,
          "internalType": "string",
          "name": "sentiment",
          "type": "string"
        },
        {
          "indexed": false,
          "internalType": "uint256",
          "name": "confidence",
          "type": "uint256"
        },
        {
          "indexed": true,
          "internalType": "address",
          "name": "worker",
          "type": "address"
        }
      ],
      "name": "SentimentResult",
      "type": "event"
    },
    {
      "inputs": [
        {
          "internalType": "uint256",
          "name": "",
          "type": "uint256"
        }
      ],
      "name": "agents",
      "outputs": [
        {
          "internalType": "address",
          "name": "owner",
          "type": "address"
        },
        {
          "internalType": "string",
          "name": "modelUrl",
          "type": "string"
        },
        {
          "internalType": "uint256",
          "name": "price",
          "type": "uint256"
        },
        {
          "internalType": "bool",
          "name": "active",
          "type": "bool"
        },
        {
          "internalType": "uint256",
          "name": "totalRequests",
          "type": "uint256"
        },
        {
          "internalType": "uint256",
          "name": "totalEarnings",
          "type": "uint256"
        }
      ],
      "stateMutability": "view",
      "type": "function"
    },
    {
      "inputs": [
        {
          "internalType": "address",
          "name": "",
          "type": "address"
        },
        {
          "internalType": "uint256",
          "name": "",
          "type": "uint256"
        }
      ],
      "name": "agentsByOwner",
      "outputs": [
        {
          "internalType": "uint256",
          "name": "",
          "type": "uint256"
        }
      ],
      "stateMutability": "view",
      "type": "function"
    },
    {
      "inputs": [],
      "name": "expectedROFLAppId",
      "outputs": [
        {
          "internalType": "bytes21",
          "name": "",
          "type": "bytes21"
        }
      ],
      "stateMutability": "view",
      "type": "function"
    },
    {
      "inputs": [
        {
          "internalType": "uint256",
          "name": "_agentId",
          "type": "uint256"
        }
      ],
      "name": "getAgent",
      "outputs": [
        {
          "internalType": "address",
          "name": "owner",
          "type": "address"
        },
        {
          "internalType": "string",
          "name": "modelUrl",
          "type": "string"
        },
        {
          "internalType": "uint256",
          "name": "price",
          "type": "uint256"
        },
        {
          "internalType": "bool",
          "name": "active",
          "type": "bool"
        },
        {
          "internalType": "uint256",
          "name": "totalRequests",
          "type": "uint256"
        },
        {
          "internalType": "uint256",
          "name": "totalEarnings",
          "type": "uint256"
        }
      ],
      "stateMutability": "view",
      "type": "function"
    },
    {
      "inputs": [],
      "name": "getAgentCount",
      "outputs": [
        {
          "internalType": "uint256",
          "name": "",
          "type": "uint256"
        }
      ],
      "stateMutability": "view",
      "type": "function"
    },
    {
      "inputs": [
        {
          "internalType": "address",
          "name": "_owner",
          "type": "address"
        }
      ],
      "name": "getAgentsByOwner",
      "outputs": [
        {
          "internalType": "uint256[]",
          "name": "",
          "type": "uint256[]"
        }
      ],
      "stateMutability": "view",
      "type": "function"
    },
    {
      "inputs": [],
      "name": "getPlatformStats",
      "outputs": [
        {
          "internalType": "uint256",
          "name": "totalAgents",
          "type": "uint256"
        },
        {
          "internalType": "uint256",
          "name": "totalRequests",
          "type": "uint256"
        },
        {
          "internalType": "uint256",
          "name": "totalFees",
          "type": "uint256"
        },
        {
          "internalType": "uint256",
          "name": "feePercent",
          "type": "uint256"
        },
        {
          "internalType": "bool",
          "name": "roflActive",
          "type": "bool"
        }
      ],
      "stateMutability": "view",
      "type": "function"
    },
    {
      "inputs": [
        {
          "internalType": "uint256",
          "name": "_requestId",
          "type": "uint256"
        }
      ],
      "name": "getRequest",
      "outputs": [
        {
          "internalType": "address",
          "name": "requester",
          "type": "address"
        },
        {
          "internalType": "uint256",
          "name": "agentId",
          "type": "uint256"
        },
        {
          "internalType": "uint256",
          "name": "timestamp",
          "type": "uint256"
        },
        {
          "internalType": "bool",
          "name": "fulfilled",
          "type": "bool"
        },
        {
          "internalType": "string",
          "name": "result",
          "type": "string"
        },
        {
          "internalType": "uint256",
          "name": "confidence",
          "type": "uint256"
        }
      ],
      "stateMutability": "view",
      "type": "function"
    },
    {
      "inputs": [],
      "name": "getRequestCount",
      "outputs": [
        {
          "internalType": "uint256",
          "name": "",
          "type": "uint256"
        }
      ],
      "stateMutability": "view",
      "type": "function"
    },
    {
      "inputs": [
        {
          "internalType": "uint256",
          "name": "_requestId",
          "type": "uint256"
        }
      ],
      "name": "getRequestText",
      "outputs": [
        {
          "internalType": "string",
          "name": "",
          "type": "string"
        }
      ],
      "stateMutability": "view",
      "type": "function"
    },
    {
      "inputs": [
        {
          "internalType": "address",
          "name": "_user",
          "type": "address"
        }
      ],
      "name": "getRequestsByUser",
      "outputs": [
        {
          "internalType": "uint256[]",
          "name": "",
          "type": "uint256[]"
        }
      ],
      "stateMutability": "view",
      "type": "function"
    },
    {
      "inputs": [],
      "name": "nextAgentId",
      "outputs": [
        {
          "internalType": "uint256",
          "name": "",
          "type": "uint256"
        }
      ],
      "stateMutability": "view",
      "type": "function"
    },
    {
      "inputs": [],
      "name": "nextRequestId",
      "outputs": [
        {
          "internalType": "uint256",
          "name": "",
          "type": "uint256"
        }
      ],
      "stateMutability": "view",
      "type": "function"
    },
    {
      "inputs": [],
      "name": "platformFeePercent",
      "outputs": [
        {
          "internalType": "uint256",
          "name": "",
          "type": "uint256"
        }
      ],
      "stateMutability": "view",
      "type": "function"
    },
    {
      "inputs": [],
      "name": "platformOwner",
      "outputs": [
        {
          "internalType": "address",
          "name": "",
          "type": "address"
        }
      ],
      "stateMutability": "view",
      "type": "function"
    },
    {
      "inputs": [
        {
          "internalType": "string",
          "name": "_modelUrl",
          "type": "string"
        },
        {
          "internalType": "uint256",
          "name": "_price",
          "type": "uint256"
        }
      ],
      "name": "registerAgent",
      "outputs": [],
      "stateMutability": "nonpayable",
      "type": "function"
    },
    {
      "inputs": [
        {
          "internalType": "bytes21",
          "name": "_appId",
          "type": "bytes21"
        },
        {
          "internalType": "address",
          "name": "_workerAddress",
          "type": "address"
        }
      ],
      "name": "registerROFLWorker",
      "outputs": [],
      "stateMutability": "nonpayable",
      "type": "function"
    },
    {
      "inputs": [
        {
          "internalType": "bytes32",
          "name": "",
          "type": "bytes32"
        }
      ],
      "name": "requestHashToId",
      "outputs": [
        {
          "internalType": "uint256",
          "name": "",
          "type": "uint256"
        }
      ],
      "stateMutability": "view",
      "type": "function"
    },
    {
      "inputs": [
        {
          "internalType": "uint256",
          "name": "_agentId",
          "type": "uint256"
        },
        {
          "internalType": "string",
          "name": "_text",
          "type": "string"
        }
      ],
      "name": "requestSentiment",
      "outputs": [],
      "stateMutability": "payable",
      "type": "function"
    },
    {
      "inputs": [
        {
          "internalType": "uint256",
          "name": "",
          "type": "uint256"
        }
      ],
      "name": "requests",
      "outputs": [
        {
          "internalType": "address",
          "name": "requester",
          "type": "address"
        },
        {
          "internalType": "uint256",
          "name": "agentId",
          "type": "uint256"
        },
        {
          "internalType": "bytes",
          "name": "encryptedText",
          "type": "bytes"
        },
        {
          "internalType": "bytes32",
          "name": "encryptionKey",
          "type": "bytes32"
        },
        {
          "internalType": "bytes32",
          "name": "encryptionNonce",
          "type": "bytes32"
        },
        {
          "internalType": "bytes",
          "name": "additionalData",
          "type": "bytes"
        },
        {
          "internalType": "uint256",
          "name": "timestamp",
          "type": "uint256"
        },
        {
          "internalType": "bool",
          "name": "fulfilled",
          "type": "bool"
        },
        {
          "internalType": "string",
          "name": "result",
          "type": "string"
        },
        {
          "internalType": "uint256",
          "name": "confidence",
          "type": "uint256"
        },
        {
          "internalType": "bytes32",
          "name": "requestHash",
          "type": "bytes32"
        }
      ],
      "stateMutability": "view",
      "type": "function"
    },
    {
      "inputs": [
        {
          "internalType": "address",
          "name": "",
          "type": "address"
        },
        {
          "internalType": "uint256",
          "name": "",
          "type": "uint256"
        }
      ],
      "name": "requestsByUser",
      "outputs": [
        {
          "internalType": "uint256",
          "name": "",
          "type": "uint256"
        }
      ],
      "stateMutability": "view",
      "type": "function"
    },
    {
      "inputs": [],
      "name": "roflEnabled",
      "outputs": [
        {
          "internalType": "bool",
          "name": "",
          "type": "bool"
        }
      ],
      "stateMutability": "view",
      "type": "function"
    },
    {
      "inputs": [],
      "name": "roflWorkerAddress",
      "outputs": [
        {
          "internalType": "address",
          "name": "",
          "type": "address"
        }
      ],
      "stateMutability": "view",
      "type": "function"
    },
    {
      "inputs": [
        {
          "internalType": "uint256",
          "name": "_requestId",
          "type": "uint256"
        },
        {
          "internalType": "string",
          "name": "_sentiment",
          "type": "string"
        },
        {
          "internalType": "uint256",
          "name": "_confidence",
          "type": "uint256"
        },
        {
          "internalType": "bytes32",
          "name": "_requestHash",
          "type": "bytes32"
        }
      ],
      "name": "submitResult",
      "outputs": [],
      "stateMutability": "nonpayable",
      "type": "function"
    },
    {
      "inputs": [
        {
          "internalType": "uint256",
          "name": "_agentId",
          "type": "uint256"
        }
      ],
      "name": "toggleAgent",
      "outputs": [],
      "stateMutability": "nonpayable",
      "type": "function"
    },
    {
      "inputs": [],
      "name": "toggleROFL",
      "outputs": [],
      "stateMutability": "nonpayable",
      "type": "function"
    },
    {
      "inputs": [],
      "name": "totalPlatformFees",
      "outputs": [
        {
          "internalType": "uint256",
          "name": "",
          "type": "uint256"
        }
      ],
      "stateMutability": "view",
      "type": "function"
    },
    {
      "inputs": [
        {
          "internalType": "uint256",
          "name": "_agentId",
          "type": "uint256"
        },
        {
          "internalType": "uint256",
          "name": "_newPrice",
          "type": "uint256"
        }
      ],
      "name": "updateAgentPrice",
      "outputs": [],
      "stateMutability": "nonpayable",
      "type": "function"
    },
    {
      "inputs": [
        {
          "internalType": "uint256",
          "name": "_newFeePercent",
          "type": "uint256"
        }
      ],
      "name": "updatePlatformFee",
      "outputs": [],
      "stateMutability": "nonpayable",
      "type": "function"
    },
    {
      "inputs": [],
      "name": "withdrawPlatformFees",
      "outputs": [],
      "stateMutability": "nonpayable",
      "type": "function"
    }
  ],
  "bytecode": "0x60808060405234610042576005805460ff60a01b19168155600955600a80546001600160a01b03191633179055600060028190556003556122c890816100488239f35b600080fdfe6080604052600436101561001257600080fd5b60003560e01c80623b465c146101f5578062bab438146101f0578063136d8883146101eb5780631ab6f888146101e65780632de5aaf7146101e157806330efc498146101dc578063319bd4b6146101d75780633fad1834146101d25780634df8ccb1146101cd578063513856c8146101c85780635f9eefef146101c357806368fb4091146101be5780636a84a985146101b9578063768eb96f146101b457806379303ac4146101af57806381d12c58146101aa5780638c639a85146101a557806391cab63e146101a05780639372478a1461019b57806396e7f92014610196578063a638728514610191578063a766d4b01461018c578063aa0b598814610187578063c58343ef14610182578063c62e5ec81461017d578063d0b7830b14610178578063d3631fa514610173578063e4656d471461016e578063e81c1201146101695763fd0928a21461016457600080fd5b6116cf565b611686565b611657565b611639565b6115e8565b6114b0565b611342565b611292565b61121a565b6111ee565b610f35565b610f0c565b610eee565b610ed0565b610e31565b610cdd565b610c93565b610c75565b610b49565b610b23565b610aad565b61095f565b610941565b6106a8565b610587565b6104b8565b6103ab565b610329565b6102b6565b61025e565b600435906001600160a01b038216820361021057565b600080fd5b602435906001600160a01b038216820361021057565b634e487b7160e01b600052603260045260246000fd5b80548210156102595760005260206000200190600090565b61022b565b34610210576040366003190112610210576102776101fa565b6001600160a01b0316600090815260076020526040902080546024359190821015610210576020916102a891610241565b90546040519160031b1c8152f35b34610210576020366003190112610210576103276004356102da6000548210611abc565b6102f86102e682610988565b50546001600160a01b03163314612254565b600361031460ff8261030985610988565b500154161592610988565b50019060ff801983541691151516179055565b005b346102105760003660031901126102105760a060005460ff600154600b546009549060055492604051958652602086015260408501526060840152831c1615156080820152f35b6020908160408183019282815285518094520193019160005b828110610397575050505090565b835185529381019392810192600101610389565b3461021057602080600319360112610210576001600160a01b036103cd6101fa565b1660005260068152604060002090604051908181845491828152019360005281600020916000905b82821061041c576104188561040c818903826105f6565b60405191829182610370565b0390f35b8354865294850194600193840193909101906103f5565b60005b8381106104465750506000910152565b8181015183820152602001610436565b9060209161046f81518092818552858086019101610433565b601f01601f1916010190565b92969594916104a29060a09592600180881b0316855260c0602086015260c0850190610456565b9660408401521515606083015260808201520152565b34610210576020366003190112610210576104e16004356104dc6000548210611abc565b610988565b506040516104ee816105bb565b81546001600160a01b03168152604051906104189061051b8361051481600188016109fc565b03846105f6565b602081019283526002840154936040820194855261053d600382015460ff1690565b15156060830190815261057a61056f60056004850154948560808801520154948560a08201525160018060a01b031690565b955196519151151590565b906040519687968761047b565b34610210576000366003190112610210576020600254604051908152f35b634e487b7160e01b600052604160045260246000fd5b60c081019081106001600160401b038211176105d657604052565b6105a5565b604081019081106001600160401b038211176105d657604052565b90601f801991011681019081106001600160401b038211176105d657604052565b6040519061016082018281106001600160401b038211176105d657604052565b60405190610644826105bb565b565b6001600160401b0381116105d657601f01601f191660200190565b81601f820112156102105780359061067882610646565b9261068660405194856105f6565b8284526020838301011161021057816000926020809301838601378301015290565b60408060031936011261021057600435906024356001600160401b038111610210576106d8903690600401610661565b906106e66000548410611abc565b60ff60036106f385610988565b5001541615610908577f703be6ef5712f36524a6139dd020a687cacafa82afd15d127deac719431463ab61084a9161072d84511515611aff565b610746600261073b87610988565b500154341015611b42565b6108a0815161081486602092898482018261078683334285916054939183526bffffffffffffffffffffffff199060601b16602083015260348201520190565b039261079a601f19948581018352826105f6565b51902091600354998a916108278a80518a8101906107d4816107c8438a869091604092825260208201520190565b038681018352826105f6565b5190208151808c01888152336020820152909a91998b939092610820928e9290610809908790604001038981018852876105f6565b51938492830161149c565b038581018352826105f6565b8888611d29565b9c61083e8b519485928b840197429233908a611b85565b039081018352826105f6565b519020988a610857610617565b33815295860152868501526060840152608083015260a08201524260c0820152600060e0820152610886611bca565b610100820152600061012082015285610140820152611bed565b3360009081526007602052604090206108ba908490611a46565b826108cf856000526008602052604060002090565b556108e36108de600354611a91565b600355565b60046108ee86610988565b50016108fa8154611a91565b9055519283523392602090a4005b5162461bcd60e51b81526020600482015260136024820152724167656e74206973206e6f742061637469766560681b6044820152606490fd5b34610210576000366003190112610210576020600154604051908152f35b3461021057600036600319011261021057600a546040516001600160a01b039091168152602090f35b6000548110156102595760069060008052027f290decd9548b62a8d60345a988386fc84ba6bc95484008f6362f93160ef3e5630190600090565b90600182811c921680156109f2575b60208310146109dc57565b634e487b7160e01b600052602260045260246000fd5b91607f16916109d1565b9060009291805491610a0d836109c2565b918282526001938481169081600014610a6f5750600114610a2f575b50505050565b90919394506000526020928360002092846000945b838610610a5b575050505001019038808080610a29565b805485870183015294019385908201610a44565b9294505050602093945060ff191683830152151560051b01019038808080610a29565b90610644610aa692604051938480926109fc565b03836105f6565b346102105760203660031901126102105760043560005481101561021057610ad490610988565b5060018060a01b0381541661041860405192610afe84610af781600185016109fc565b03856105f6565b60028101549060ff60038201541660056004830154920154926040519687968761047b565b3461021057600036600319011261021057602060ff60055460a01c166040519015158152f35b34610210576040366003190112610210576004356001600160401b03811161021057610b79903690600401610661565b602435815115610c3057610b8e811515611756565b7fc29f819ac362ff9c94de06666235808451aafd8894a2dffb86a080a965efeae3610c2b60025492610bf0610bc1610637565b338152866020820152826040820152610bdd6060820160019052565b60006080820152600060a08201526118da565b336000908152600660205260409020610c0a908590611a46565b610c1d610c18600254611a91565b600255565b604051918291339683611aa5565b0390a3005b60405162461bcd60e51b815260206004820152601960248201527f4d6f64656c2055524c2063616e6e6f7420626520656d707479000000000000006044820152606490fd5b34610210576000366003190112610210576020600354604051908152f35b3461021057604036600319011261021057610cac6101fa565b6001600160a01b0316600090815260066020526040902080546024359190821015610210576020916102a891610241565b34610210576040366003190112610210576004356affffffffffffffffffffff19811680820361021057610d0f610215565b600a546001600160a01b039190610d299083163314611715565b6affffffffffffffffffffff60a81b9360581c846004541617600455169182600160a01b916005541617176005557fc5861f1f778380dacb15e8dc555eb44a1c032c847fd031d12883e75cef297975600080a3005b60015481101561025957600b906001600052027fb10e2d527612073b26eecdfd717e6a320cf44b4afac2b0732d9fcbe2b7fa0cf60190600090565b97939194610df3610e0b946101409b979c9e9d9c610e269a999460018060a01b03168c5260208c01526101608060408d01528b0190610456565b9260608a0152608089015287820360a0890152610456565b9260c0860152151560e0850152838203610100850152610456565b946101208201520152565b346102105760203660031901126102105760043560015481101561021057610e5890610d7e565b5060018060a01b0381541661041860018301549260405190610e8182610aa681600285016109fc565b60038101546004820154610e9760058401610a92565b600684015490610eab600786015460ff1690565b92610eb860088701610a92565b94600a6009880154970154976040519b8c9b8c610db9565b34610210576000366003190112610210576020600954604051908152f35b34610210576000366003190112610210576020600054604051908152f35b34610210576000366003190112610210576005546040516001600160a01b039091168152602090f35b34610210576080366003190112610210576004356024356001600160401b03811161021057610f68903690600401610661565b9060443560055460ff8160a01c166000146111d55750610fa6610f8961203c565b6affffffffffffffffffffff198060045460581b16911614611de0565b610fb36001548310611e1f565b610fd9610fd4610fd06007610fc786610d7e565b50015460ff1690565b1590565b611e64565b610fe66064821115611eb0565b611000610ff283610d7e565b50600a015460643514611efc565b611031835160208501908120611014611f3f565b60208151910120149081156111b9575b811561119d575b50611faa565b61104e600761103f84610d7e565b5001805460ff19166001179055565b61106483600861105d85610d7e565b500161180c565b80600961107084610d7e565b500155600161107e83610d7e565b50015461109b61108d82610988565b50546001600160a01b031690565b9060026110a782610988565b5001549160056110d66110d06110c96110c260095488611ff6565b6064900490565b8096612009565b93610988565b50016110e3838254612016565b90556110f96110f484600b54612016565b600b55565b6001600160a01b031694600082878115611193575b600092839283928392f11561118e57847f69148261bafe8dad888d83ec403762c2b4d49a98677efb08e063b268511a67786111727f3752d299ee850882ff779a81f3571c4d0952aec5f8fe5b833257fae354ee5c1796604051918291339683611aa5565b0390a36040805191825260208201929092529081908101610c2b565b612023565b6108fc925061110e565b9050845190206111ab611f86565b60208151910120143861102b565b9050845181206111c7611f63565b602081519101201490611024565b6111e9906001600160a01b03163314611d9c565b610fa6565b346102105760203660031901126102105760043560005260086020526020604060002054604051908152f35b3461021057602080600319360112610210576001600160a01b0361123c6101fa565b1660005260078152604060002090604051908181845491828152019360005281600020916000905b82821061127b576104188561040c818903826105f6565b835486529485019460019384019390910190611264565b34610210576020366003190112610210576004356112bb60018060a01b03600a54163314611715565b601481116112c857600955005b60405162461bcd60e51b81526020600482015260156024820152744665652063616e6e6f74206578636565642032302560581b6044820152606490fd5b969594919261133d9360a09592600180881b03168952602089015260408801521515606087015260c0608087015260c0860190610456565b930152565b346102105760203660031901126102105761136b6004356113666001548210611e1f565b610d7e565b50611374610617565b81546001600160a01b031681526104186001830154916020810192835261139d60028501610a92565b604082015260038401546060820152600484015460808201526113c260058501610a92565b60a082015260068401549360c082019485526113e2600782015460ff1690565b151560e083019081529161146861145d6113fe60088501610a92565b926101008101938452600a6009860154956101208301968752015461014082015261143e611432825160018060a01b031690565b6001600160a01b031690565b33148015611479575b61145090612208565b516001600160a01b031690565b955196519351151590565b905191519260405196879687611305565b5060055461145090611493906001600160a01b0316611432565b33149050611447565b9060206114ad928181520190610456565b90565b34610210576020366003190112610210576000806114f360043560055460ff8160a01c1684146115cf57506114e6610f8961203c565b6113666001548210611e1f565b5060038101549061155c600482015461154e600561153d604051956115268761151f81600285016109fc565b03886105f6565b61153660405180948193016109fc565b03826105f6565b604051948593602085019788611cc9565b03601f1981018352826105f6565b51906004600160981b015afa611570611cf9565b90156115985761158c81602080610418945183010191016121d2565b6040519182918261149c565b60405162461bcd60e51b815260206004820152600f60248201526e191958dc9e5c1d0e8819985a5b1959608a1b6044820152606490fd5b6115e3906001600160a01b03163314611d9c565b6114e6565b3461021057600080600319360112611636578080808060018060a01b03600a5416611614813314611715565b600b549082600b5582821561162d575bf11561118e5780f35b506108fc611624565b80fd5b34610210576000366003190112610210576020600b54604051908152f35b3461021057600036600319011261021057602060045460581b604051906affffffffffffffffffffff19168152f35b34610210576000366003190112610210576116ac60018060a01b03600a54163314611715565b6005805460ff60a01b19811660a091821c60ff161590911b60ff60a01b16179055005b34610210576040366003190112610210576004356002611710602435926116f96000548210611abc565b6117056102e682610988565b6104dc841515611756565b500155005b1561171c57565b60405162461bcd60e51b81526020600482015260126024820152712737ba10383630ba3337b9369037bbb732b960711b6044820152606490fd5b1561175d57565b60405162461bcd60e51b815260206004820152601c60248201527f5072696365206d7573742062652067726561746572207468616e2030000000006044820152606490fd5b634e487b7160e01b600052600060045260246000fd5b90601f81116117c657505050565b600091825260208220906020601f850160051c83019410611802575b601f0160051c01915b8281106117f757505050565b8181556001016117eb565b90925082906117e2565b91909182516001600160401b0381116105d6576118338161182d84546109c2565b846117b8565b602080601f831160011461186f575081929394600092611864575b50508160011b916000199060031b1c1916179055565b01519050388061184e565b90601f1983169561188585600052602060002090565b926000905b8882106118c2575050836001959697106118a9575b505050811b019055565b015160001960f88460031b161c1916905538808061189f565b8060018596829496860151815501950193019061188a565b600054600160401b8110156105d6576118fa600191828101600055610988565b929092611a4157805183546001600160a01b0319166001600160a01b0391909116178355818301602080830151938451916001600160401b0383116105d65761194d8361194786546109c2565b866117b8565b80601f84116001146119cb57509180809260a09695946005986000946119c0575b50501b916000199060031b1c19161790555b604081015160028501556119af61199a6060830151151590565b600386019060ff801983541691151516179055565b608081015160048501550151910155565b01519250388061196e565b91939495601f1984166119e387600052602060002090565b936000905b828210611a2a575050916005979593918560a098969410611a11575b505050811b019055611980565b015160001960f88460031b161c19169055388080611a04565b8088869782949787015181550196019401906119e8565b6117a2565b8054600160401b8110156105d657611a6391600182018155610241565b819291549060031b91821b91600019901b1916179055565b634e487b7160e01b600052601160045260246000fd5b6000198114611aa05760010190565b611a7b565b92919061133d602091604086526040860190610456565b15611ac357565b60405162461bcd60e51b81526020600482015260146024820152731059d95b9d08191bd95cc81b9bdd08195e1a5cdd60621b6044820152606490fd5b15611b0657565b60405162461bcd60e51b8152602060048201526014602482015273546578742063616e6e6f7420626520656d70747960601b6044820152606490fd5b15611b4957565b60405162461bcd60e51b8152602060048201526014602482015273125b9cdd59999a58da595b9d081c185e5b595b9d60621b6044820152606490fd5b9160749594939183526bffffffffffffffffffffffff199060601b1660208301526034820152611bbf825180936020605485019101610433565b019060548201520190565b60405190602082018281106001600160401b038211176105d65760405260008252565b600154600160401b8110156105d657806001611c0c9201600155610d7e565b919091611a4157805182546001600160a01b0319166001600160a01b03909116178255600a906101409060208101516001850155611c5160408201516002860161180c565b6060810151600385015560808101516004850155611c7660a08201516005860161180c565b60c08101516006850155611ca5611c9060e0830151151590565b600786019060ff801983541691151516179055565b611cb76101008201516008860161180c565b61012081015160098501550151910155565b926114ad9492611ceb9285526020850152608060408501526080840190610456565b916060818403910152610456565b3d15611d24573d90611d0a82610646565b91611d1860405193846105f6565b82523d6000602084013e565b606090565b9091611d486000949361154e8695604051948593602085019788611cc9565b51906003600160981b015afa611d5c611cf9565b9015611d655790565b60405162461bcd60e51b815260206004820152600f60248201526e195b98dc9e5c1d0e8819985a5b1959608a1b6044820152606490fd5b15611da357565b60405162461bcd60e51b81526020600482015260156024820152742737ba1030baba3437b934bd32b2103bb7b935b2b960591b6044820152606490fd5b15611de757565b60405162461bcd60e51b815260206004820152601060248201526f0496e76616c696420524f464c206170760841b6044820152606490fd5b15611e2657565b60405162461bcd60e51b815260206004820152601660248201527514995c5d595cdd08191bd95cc81b9bdd08195e1a5cdd60521b6044820152606490fd5b15611e6b57565b60405162461bcd60e51b815260206004820152601960248201527f5265717565737420616c72656164792066756c66696c6c6564000000000000006044820152606490fd5b15611eb757565b60405162461bcd60e51b815260206004820152601860248201527f436f6e666964656e6365206d75737420626520302d31303000000000000000006044820152606490fd5b15611f0357565b60405162461bcd60e51b8152602060048201526014602482015273092dcecc2d8d2c840e4cae2eacae6e840d0c2e6d60631b6044820152606490fd5b60405190611f4c826105db565b6008825267706f73697469766560c01b6020830152565b60405190611f70826105db565b60078252661b995d5d1c985b60ca1b6020830152565b60405190611f93826105db565b60088252676e6567617469766560c01b6020830152565b15611fb157565b60405162461bcd60e51b815260206004820152601760248201527f496e76616c69642073656e74696d656e742076616c75650000000000000000006044820152606490fd5b81810292918115918404141715611aa057565b91908203918211611aa057565b91908201809211611aa057565b6040513d6000823e3d90fd5b8051156102595760200190565b604080519061204a826105db565b600e825260206d0726f666c2e4f726967696e4170760941b818401528151612071816105db565b60018152607b60f91b828201526120ae8351918261083e61209c86830198888a526060840190610456565b601f1993848483030189850152610456565b60008094819251907301000000000000000000000000000000000001035afa926120d6611cf9565b931561218c57835184019183858285019403126121885780850151946001600160401b0390818716809703612184578581015191821161218457019183603f84011215611636575081015161212d9291840161219d565b9115801590612153575b61214357506021015190565b51631205d29f60e31b8152600490fd5b50605560f81b6001600160f81b031961217c61216e8561202f565b516001600160f81b03191690565b161415612137565b8380fd5b5080fd5b8251631205d29f60e31b8152600490fd5b909291926121aa81610646565b916121b860405193846105f6565b829482845282820111610210576020610644930190610433565b602081830312610210578051906001600160401b03821161021057019080601f830112156102105781516114ad9260200161219d565b1561220f57565b60405162461bcd60e51b815260206004820152601e60248201527f4e6f7420617574686f72697a656420746f2076696577207265717565737400006044820152606490fd5b1561225b57565b60405162461bcd60e51b815260206004820152600f60248201526e2737ba1030b3b2b73a1037bbb732b960891b6044820152606490fdfea264697066735822122094a7de25a4ab1d39535fd2865061bd1b05eb53f69a25c3e6a4b971b5e5c04d3264736f6c63430008130033",
  "linkReferences": {},
  "deployedLinkReferences": {}
}